{
  "_format": "hh-sol-artifact-1",
  "contractName": "SimpleHubV1",
  "sourceName": "contracts/SimpleHubV1.sol",
  "abi": [
    {
      "inputs": [],
      "stateMutability": "nonpayable",
      "type": "constructor"
    },
    {
      "anonymous": false,
      "inputs": [
        {
          "indexed": false,
          "internalType": "address",
          "name": "oldAddress",
          "type": "address"
        },
        {
          "indexed": false,
          "internalType": "address",
          "name": "newAddress",
          "type": "address"
        }
      ],
      "name": "CollateralFundAddressUpdated",
      "type": "event"
    },
    {
      "anonymous": false,
      "inputs": [
        {
          "indexed": false,
          "internalType": "address",
          "name": "oldAddress",
          "type": "address"
        },
        {
          "indexed": false,
          "internalType": "address",
          "name": "newAddress",
          "type": "address"
        }
      ],
      "name": "PriceTrackerAddressUpdated",
      "type": "event"
    },
    {
      "anonymous": false,
      "inputs": [
        {
          "indexed": true,
          "internalType": "string",
          "name": "symbol",
          "type": "string"
        },
        {
          "indexed": false,
          "internalType": "address",
          "name": "oldAddress",
          "type": "address"
        },
        {
          "indexed": false,
          "internalType": "address",
          "name": "newAddress",
          "type": "address"
        }
      ],
      "name": "SyntAssetAddressUpdated",
      "type": "event"
    },
    {
      "anonymous": false,
      "inputs": [
        {
          "indexed": true,
          "internalType": "string",
          "name": "symbol",
          "type": "string"
        },
        {
          "indexed": false,
          "internalType": "uint256",
          "name": "amount",
          "type": "uint256"
        },
        {
          "indexed": true,
          "internalType": "address",
          "name": "userAddress",
          "type": "address"
        }
      ],
      "name": "SynthAssetBurnt",
      "type": "event"
    },
    {
      "anonymous": false,
      "inputs": [
        {
          "indexed": true,
          "internalType": "string",
          "name": "symbol",
          "type": "string"
        },
        {
          "indexed": false,
          "internalType": "uint256",
          "name": "amount",
          "type": "uint256"
        },
        {
          "indexed": true,
          "internalType": "address",
          "name": "userAddress",
          "type": "address"
        }
      ],
      "name": "SynthAssetMinted",
      "type": "event"
    },
    {
      "inputs": [
        {
          "internalType": "address",
          "name": "",
          "type": "address"
        },
        {
          "internalType": "uint256",
          "name": "",
          "type": "uint256"
        }
      ],
      "name": "addressToPositions",
      "outputs": [
        {
          "internalType": "string",
          "name": "symbol",
          "type": "string"
        },
        {
          "internalType": "uint256",
          "name": "amount",
          "type": "uint256"
        }
      ],
      "stateMutability": "view",
      "type": "function"
    },
    {
      "inputs": [
        {
          "internalType": "string",
          "name": "_symbol",
          "type": "string"
        },
        {
          "internalType": "uint256",
          "name": "_amount",
          "type": "uint256"
        },
        {
          "internalType": "address",
          "name": "_userAddress",
          "type": "address"
        }
      ],
      "name": "burnSynthAsset",
      "outputs": [
        {
          "internalType": "bool",
          "name": "",
          "type": "bool"
        }
      ],
      "stateMutability": "nonpayable",
      "type": "function"
    },
    {
      "inputs": [],
      "name": "collateralFundAddress",
      "outputs": [
        {
          "internalType": "address",
          "name": "",
          "type": "address"
        }
      ],
      "stateMutability": "view",
      "type": "function"
    },
    {
      "inputs": [
        {
          "internalType": "address",
          "name": "_userAddress",
          "type": "address"
        }
      ],
      "name": "getUserCollateralValue",
      "outputs": [
        {
          "internalType": "uint256",
          "name": "userCollateralValue",
          "type": "uint256"
        }
      ],
      "stateMutability": "view",
      "type": "function"
    },
    {
      "inputs": [
        {
          "internalType": "string",
          "name": "_symbol",
          "type": "string"
        },
        {
          "internalType": "address",
          "name": "_userAddress",
          "type": "address"
        }
      ],
      "name": "getUserPositionAmount",
      "outputs": [
        {
          "internalType": "uint256",
          "name": "amount",
          "type": "uint256"
        }
      ],
      "stateMutability": "view",
      "type": "function"
    },
    {
      "inputs": [
        {
          "internalType": "address",
          "name": "_userAddress",
          "type": "address"
        }
      ],
      "name": "getUserTotalValueMinted",
      "outputs": [
        {
          "internalType": "uint256",
          "name": "userTotalValueMinted",
          "type": "uint256"
        }
      ],
      "stateMutability": "view",
      "type": "function"
    },
    {
      "inputs": [
        {
          "internalType": "string",
          "name": "_symbol",
          "type": "string"
        },
        {
          "internalType": "uint256",
          "name": "_amount",
          "type": "uint256"
        },
        {
          "internalType": "address",
          "name": "_userAddress",
          "type": "address"
        }
      ],
      "name": "mintSynthAsset",
      "outputs": [
        {
          "internalType": "bool",
          "name": "",
          "type": "bool"
        }
      ],
      "stateMutability": "nonpayable",
      "type": "function"
    },
    {
      "inputs": [],
      "name": "owner",
      "outputs": [
        {
          "internalType": "address",
          "name": "",
          "type": "address"
        }
      ],
      "stateMutability": "view",
      "type": "function"
    },
    {
      "inputs": [],
      "name": "priceTrackerAddress",
      "outputs": [
        {
          "internalType": "address",
          "name": "",
          "type": "address"
        }
      ],
      "stateMutability": "view",
      "type": "function"
    },
    {
      "inputs": [
        {
          "internalType": "address",
          "name": "_collateralFundAddress",
          "type": "address"
        }
      ],
      "name": "setCollateralFundAddress",
      "outputs": [],
      "stateMutability": "nonpayable",
      "type": "function"
    },
    {
      "inputs": [
        {
          "internalType": "address",
          "name": "_priceTrackerAddress",
          "type": "address"
        }
      ],
      "name": "setPriceTrackerAddress",
      "outputs": [],
      "stateMutability": "nonpayable",
      "type": "function"
    },
    {
      "inputs": [
        {
          "internalType": "string",
          "name": "_symbol",
          "type": "string"
        },
        {
          "internalType": "address",
          "name": "_synthAddress",
          "type": "address"
        }
      ],
      "name": "setSynthAssetAddress",
      "outputs": [],
      "stateMutability": "nonpayable",
      "type": "function"
    },
    {
      "inputs": [
        {
          "internalType": "string",
          "name": "",
          "type": "string"
        }
      ],
      "name": "symbolToSynthAddress",
      "outputs": [
        {
          "internalType": "address",
          "name": "",
          "type": "address"
        }
      ],
      "stateMutability": "view",
      "type": "function"
    }
  ],
  "bytecode": "0x608060405260026000806101000a81548160ff021916908360ff16021790555034801561002b57600080fd5b5033600760006101000a81548173ffffffffffffffffffffffffffffffffffffffff021916908373ffffffffffffffffffffffffffffffffffffffff160217905550612b7a8061007c6000396000f3fe608060405234801561001057600080fd5b50600436106100ce5760003560e01c806337a700561161008c57806375417da61161006657806375417da6146102385780638da5cb5b14610268578063ad2d68d814610286578063dab1a37b146102b6576100ce565b806337a70056146101a75780633b93fe75146101d85780633f721a3e14610208576100ce565b80629f573f146100d3578063101e1c02146100ef57806312eb02ae1461010d57806313bb5d84146101295780632b006a04146101595780633311569914610189575b600080fd5b6100ed60048036038101906100e89190611fb7565b6102d2565b005b6100f76104b2565b60405161010491906123a8565b60405180910390f35b61012760048036038101906101229190611fb7565b6104d8565b005b610143600480360381019061013e91906120f6565b6106b8565b6040516101509190612415565b60405180910390f35b610173600480360381019061016e91906120f6565b6109b2565b6040516101809190612415565b60405180910390f35b610191610da5565b60405161019e91906123a8565b60405180910390f35b6101c160048036038101906101bc9190611fe4565b610dcb565b6040516101cf929190612452565b60405180910390f35b6101f260048036038101906101ed9190612051565b610e94565b6040516101ff91906123a8565b60405180910390f35b610222600480360381019061021d919061209a565b610edd565b60405161022f9190612542565b60405180910390f35b610252600480360381019061024d9190611fb7565b6110e4565b60405161025f9190612542565b60405180910390f35b6102706112b7565b60405161027d91906123a8565b60405180910390f35b6102a0600480360381019061029b9190611fb7565b6112dd565b6040516102ad9190612542565b60405180910390f35b6102d060048036038101906102cb919061209a565b611590565b005b600760009054906101000a900473ffffffffffffffffffffffffffffffffffffffff1673ffffffffffffffffffffffffffffffffffffffff163373ffffffffffffffffffffffffffffffffffffffff1614610362576040517f08c379a000000000000000000000000000000000000000000000000000000000815260040161035990612522565b60405180910390fd5b600073ffffffffffffffffffffffffffffffffffffffff168173ffffffffffffffffffffffffffffffffffffffff1614156103d2576040517f08c379a00000000000000000000000000000000000000000000000000000000081526004016103c990612482565b60405180910390fd5b7f25f3a6e073e8efe0a555aff5f5e62db66eda54e312c62e75427a219fcc14e0df600460009054906101000a900473ffffffffffffffffffffffffffffffffffffffff16826040516104259291906123c3565b60405180910390a180600460006101000a81548173ffffffffffffffffffffffffffffffffffffffff021916908373ffffffffffffffffffffffffffffffffffffffff16021790555080600660006101000a81548173ffffffffffffffffffffffffffffffffffffffff021916908373ffffffffffffffffffffffffffffffffffffffff16021790555050565b600460009054906101000a900473ffffffffffffffffffffffffffffffffffffffff1681565b600760009054906101000a900473ffffffffffffffffffffffffffffffffffffffff1673ffffffffffffffffffffffffffffffffffffffff163373ffffffffffffffffffffffffffffffffffffffff1614610568576040517f08c379a000000000000000000000000000000000000000000000000000000000815260040161055f90612522565b60405180910390fd5b600073ffffffffffffffffffffffffffffffffffffffff168173ffffffffffffffffffffffffffffffffffffffff1614156105d8576040517f08c379a00000000000000000000000000000000000000000000000000000000081526004016105cf90612482565b60405180910390fd5b7f6021c0c69052c1579b683845243db6e52c802bbe0bc59f05a8e4d9b54b1a85d3600360009054906101000a900473ffffffffffffffffffffffffffffffffffffffff168260405161062b9291906123c3565b60405180910390a180600360006101000a81548173ffffffffffffffffffffffffffffffffffffffff021916908373ffffffffffffffffffffffffffffffffffffffff16021790555080600560006101000a81548173ffffffffffffffffffffffffffffffffffffffff021916908373ffffffffffffffffffffffffffffffffffffffff16021790555050565b6000600760009054906101000a900473ffffffffffffffffffffffffffffffffffffffff1673ffffffffffffffffffffffffffffffffffffffff163373ffffffffffffffffffffffffffffffffffffffff161461074a576040517f08c379a000000000000000000000000000000000000000000000000000000000815260040161074190612522565b60405180910390fd5b600084511161078e576040517f08c379a0000000000000000000000000000000000000000000000000000000008152600401610785906124e2565b60405180910390fd5b600083116107d1576040517f08c379a00000000000000000000000000000000000000000000000000000000081526004016107c8906124a2565b60405180910390fd5b600073ffffffffffffffffffffffffffffffffffffffff168273ffffffffffffffffffffffffffffffffffffffff161415610841576040517f08c379a000000000000000000000000000000000000000000000000000000000815260040161083890612482565b60405180910390fd5b8261084c8584610edd565b101561088d576040517f08c379a000000000000000000000000000000000000000000000000000000000815260040161088490612502565b60405180910390fd5b60018460405161089d9190612391565b908152602001604051809103902060009054906101000a900473ffffffffffffffffffffffffffffffffffffffff1673ffffffffffffffffffffffffffffffffffffffff16639dc29fac83856040518363ffffffff1660e01b81526004016109069291906123ec565b600060405180830381600087803b15801561092057600080fd5b505af1158015610934573d6000803e3d6000fd5b505050508173ffffffffffffffffffffffffffffffffffffffff168460405161095d9190612391565b60405180910390207f3d59f09c96f298fbec79624978cbab98cb376b12f5dae500dbcae195eb0342ed856040516109949190612542565b60405180910390a36109a78484846117c2565b600190509392505050565b6000600760009054906101000a900473ffffffffffffffffffffffffffffffffffffffff1673ffffffffffffffffffffffffffffffffffffffff163373ffffffffffffffffffffffffffffffffffffffff1614610a44576040517f08c379a0000000000000000000000000000000000000000000000000000000008152600401610a3b90612522565b60405180910390fd5b6000845111610a88576040517f08c379a0000000000000000000000000000000000000000000000000000000008152600401610a7f906124e2565b60405180910390fd5b60008311610acb576040517f08c379a0000000000000000000000000000000000000000000000000000000008152600401610ac2906124a2565b60405180910390fd5b600073ffffffffffffffffffffffffffffffffffffffff168273ffffffffffffffffffffffffffffffffffffffff161415610b3b576040517f08c379a0000000000000000000000000000000000000000000000000000000008152600401610b3290612482565b60405180910390fd5b6000610b46836112dd565b90506000600660009054906101000a900473ffffffffffffffffffffffffffffffffffffffff1673ffffffffffffffffffffffffffffffffffffffff16632aedd0eb876040518263ffffffff1660e01b8152600401610ba59190612430565b60206040518083038186803b158015610bbd57600080fd5b505afa158015610bd1573d6000803e3d6000fd5b505050506040513d601f19601f82011682018060405250810190610bf59190612165565b85610c009190612650565b905060008183610c1091906125fa565b90506000610c1d866110e4565b905060008054906101000a900460ff1660ff1682610c3b9190612650565b8111610c7c576040517f08c379a0000000000000000000000000000000000000000000000000000000008152600401610c73906124c2565b60405180910390fd5b600188604051610c8c9190612391565b908152602001604051809103902060009054906101000a900473ffffffffffffffffffffffffffffffffffffffff1673ffffffffffffffffffffffffffffffffffffffff166340c10f1987896040518363ffffffff1660e01b8152600401610cf59291906123ec565b600060405180830381600087803b158015610d0f57600080fd5b505af1158015610d23573d6000803e3d6000fd5b505050508573ffffffffffffffffffffffffffffffffffffffff1688604051610d4c9190612391565b60405180910390207f3bc4144ca6c1e28870004c46304d982cf2199e1fc03c93f162c539aabe167eef89604051610d839190612542565b60405180910390a3610d96888888611aae565b60019450505050509392505050565b600360009054906101000a900473ffffffffffffffffffffffffffffffffffffffff1681565b60026020528160005260406000208181548110610de757600080fd5b906000526020600020906002020160009150915050806000018054610e0b90612772565b80601f0160208091040260200160405190810160405280929190818152602001828054610e3790612772565b8015610e845780601f10610e5957610100808354040283529160200191610e84565b820191906000526020600020905b815481529060010190602001808311610e6757829003601f168201915b5050505050908060010154905082565b6001818051602081018201805184825260208301602085012081835280955050505050506000915054906101000a900473ffffffffffffffffffffffffffffffffffffffff1681565b600080835111610f22576040517f08c379a0000000000000000000000000000000000000000000000000000000008152600401610f19906124e2565b60405180910390fd5b600073ffffffffffffffffffffffffffffffffffffffff168273ffffffffffffffffffffffffffffffffffffffff161415610f92576040517f08c379a0000000000000000000000000000000000000000000000000000000008152600401610f8990612482565b60405180910390fd5b60005b600260008473ffffffffffffffffffffffffffffffffffffffff1673ffffffffffffffffffffffffffffffffffffffff168152602001908152602001600020805490508110156110dd578380519060200120600260008573ffffffffffffffffffffffffffffffffffffffff1673ffffffffffffffffffffffffffffffffffffffff16815260200190815260200160002082815481106110385761103761287c565b5b9060005260206000209060020201600001604051611056919061237a565b604051809103902014156110ca57600260008473ffffffffffffffffffffffffffffffffffffffff1673ffffffffffffffffffffffffffffffffffffffff16815260200190815260200160002081815481106110b5576110b461287c565b5b90600052602060002090600202016001015491505b80806110d5906127d5565b915050610f95565b5092915050565b60008073ffffffffffffffffffffffffffffffffffffffff168273ffffffffffffffffffffffffffffffffffffffff161415611155576040517f08c379a000000000000000000000000000000000000000000000000000000000815260040161114c90612482565b60405180910390fd5b6000600660009054906101000a900473ffffffffffffffffffffffffffffffffffffffff1673ffffffffffffffffffffffffffffffffffffffff16634ad517bc6040518163ffffffff1660e01b815260040160206040518083038186803b1580156111bf57600080fd5b505afa1580156111d3573d6000803e3d6000fd5b505050506040513d601f19601f820116820180604052508101906111f79190612024565b905080600560009054906101000a900473ffffffffffffffffffffffffffffffffffffffff1673ffffffffffffffffffffffffffffffffffffffff166399a04145856040518263ffffffff1660e01b815260040161125591906123a8565b60206040518083038186803b15801561126d57600080fd5b505afa158015611281573d6000803e3d6000fd5b505050506040513d601f19601f820116820180604052508101906112a59190612165565b6112af9190612650565b915050919050565b600760009054906101000a900473ffffffffffffffffffffffffffffffffffffffff1681565b60008073ffffffffffffffffffffffffffffffffffffffff168273ffffffffffffffffffffffffffffffffffffffff16141561134e576040517f08c379a000000000000000000000000000000000000000000000000000000000815260040161134590612482565b60405180910390fd5b60005b600260008473ffffffffffffffffffffffffffffffffffffffff1673ffffffffffffffffffffffffffffffffffffffff1681526020019081526020016000208054905081101561158a576000600260008573ffffffffffffffffffffffffffffffffffffffff1673ffffffffffffffffffffffffffffffffffffffff16815260200190815260200160002082815481106113ee576113ed61287c565b5b906000526020600020906002020160405180604001604052908160008201805461141790612772565b80601f016020809104026020016040519081016040528092919081815260200182805461144390612772565b80156114905780601f1061146557610100808354040283529160200191611490565b820191906000526020600020905b81548152906001019060200180831161147357829003601f168201915b5050505050815260200160018201548152505090506000600660009054906101000a900473ffffffffffffffffffffffffffffffffffffffff1673ffffffffffffffffffffffffffffffffffffffff16632aedd0eb83600001516040518263ffffffff1660e01b81526004016115069190612430565b60206040518083038186803b15801561151e57600080fd5b505afa158015611532573d6000803e3d6000fd5b505050506040513d601f19601f820116820180604052508101906115569190612165565b90508082602001516115689190612650565b8461157391906125fa565b935050508080611582906127d5565b915050611351565b50919050565b600760009054906101000a900473ffffffffffffffffffffffffffffffffffffffff1673ffffffffffffffffffffffffffffffffffffffff163373ffffffffffffffffffffffffffffffffffffffff1614611620576040517f08c379a000000000000000000000000000000000000000000000000000000000815260040161161790612522565b60405180910390fd5b6000825111611664576040517f08c379a000000000000000000000000000000000000000000000000000000000815260040161165b906124e2565b60405180910390fd5b600073ffffffffffffffffffffffffffffffffffffffff168173ffffffffffffffffffffffffffffffffffffffff1614156116d4576040517f08c379a00000000000000000000000000000000000000000000000000000000081526004016116cb90612482565b60405180910390fd5b816040516116e29190612391565b60405180910390207ff0e5b7e2b0db2d668e8638ebb7f6d54106ddf2afb61220c1088218826e6387ff60018460405161171b9190612391565b908152602001604051809103902060009054906101000a900473ffffffffffffffffffffffffffffffffffffffff16836040516117599291906123c3565b60405180910390a2806001836040516117729190612391565b908152602001604051809103902060006101000a81548173ffffffffffffffffffffffffffffffffffffffff021916908373ffffffffffffffffffffffffffffffffffffffff1602179055505050565b600760009054906101000a900473ffffffffffffffffffffffffffffffffffffffff1673ffffffffffffffffffffffffffffffffffffffff163373ffffffffffffffffffffffffffffffffffffffff1614611852576040517f08c379a000000000000000000000000000000000000000000000000000000000815260040161184990612522565b60405180910390fd5b6000835111611896576040517f08c379a000000000000000000000000000000000000000000000000000000000815260040161188d906124e2565b60405180910390fd5b600082116118d9576040517f08c379a00000000000000000000000000000000000000000000000000000000081526004016118d0906124a2565b60405180910390fd5b600073ffffffffffffffffffffffffffffffffffffffff168173ffffffffffffffffffffffffffffffffffffffff161415611949576040517f08c379a000000000000000000000000000000000000000000000000000000000815260040161194090612482565b60405180910390fd5b60005b600260008373ffffffffffffffffffffffffffffffffffffffff1673ffffffffffffffffffffffffffffffffffffffff16815260200190815260200160002080549050811015611aa8578380519060200120600260008473ffffffffffffffffffffffffffffffffffffffff1673ffffffffffffffffffffffffffffffffffffffff16815260200190815260200160002082815481106119ef576119ee61287c565b5b9060005260206000209060020201600001604051611a0d919061237a565b60405180910390201415611a955782600260008473ffffffffffffffffffffffffffffffffffffffff1673ffffffffffffffffffffffffffffffffffffffff1681526020019081526020016000208281548110611a6d57611a6c61287c565b5b90600052602060002090600202016001016000828254611a8d91906126aa565b925050819055505b8080611aa0906127d5565b91505061194c565b50505050565b600760009054906101000a900473ffffffffffffffffffffffffffffffffffffffff1673ffffffffffffffffffffffffffffffffffffffff163373ffffffffffffffffffffffffffffffffffffffff1614611b3e576040517f08c379a0000000000000000000000000000000000000000000000000000000008152600401611b3590612522565b60405180910390fd5b6000835111611b82576040517f08c379a0000000000000000000000000000000000000000000000000000000008152600401611b79906124e2565b60405180910390fd5b60008211611bc5576040517f08c379a0000000000000000000000000000000000000000000000000000000008152600401611bbc906124a2565b60405180910390fd5b600073ffffffffffffffffffffffffffffffffffffffff168173ffffffffffffffffffffffffffffffffffffffff161415611c35576040517f08c379a0000000000000000000000000000000000000000000000000000000008152600401611c2c90612482565b60405180910390fd5b600080600090505b600260008473ffffffffffffffffffffffffffffffffffffffff1673ffffffffffffffffffffffffffffffffffffffff16815260200190815260200160002080549050811015611d9d578480519060200120600260008573ffffffffffffffffffffffffffffffffffffffff1673ffffffffffffffffffffffffffffffffffffffff1681526020019081526020016000208281548110611ce057611cdf61287c565b5b9060005260206000209060020201600001604051611cfe919061237a565b60405180910390201415611d8a5783600260008573ffffffffffffffffffffffffffffffffffffffff1673ffffffffffffffffffffffffffffffffffffffff1681526020019081526020016000208281548110611d5e57611d5d61287c565b5b90600052602060002090600202016001016000828254611d7e91906125fa565b92505081905550600191505b8080611d95906127d5565b915050611c3d565b5080611e4a57600260008373ffffffffffffffffffffffffffffffffffffffff1673ffffffffffffffffffffffffffffffffffffffff16815260200190815260200160002060405180604001604052808681526020018581525090806001815401808255809150506001900390600052602060002090600202016000909190919091506000820151816000019080519060200190611e3c929190611e50565b506020820151816001015550505b50505050565b828054611e5c90612772565b90600052602060002090601f016020900481019282611e7e5760008555611ec5565b82601f10611e9757805160ff1916838001178555611ec5565b82800160010185558215611ec5579182015b82811115611ec4578251825591602001919060010190611ea9565b5b509050611ed29190611ed6565b5090565b5b80821115611eef576000816000905550600101611ed7565b5090565b6000611f06611f0184612582565b61255d565b905082815260208101848484011115611f2257611f216128df565b5b611f2d848285612730565b509392505050565b600081359050611f4481612aff565b92915050565b600081519050611f5981612b16565b92915050565b600082601f830112611f7457611f736128da565b5b8135611f84848260208601611ef3565b91505092915050565b600081359050611f9c81612b2d565b92915050565b600081519050611fb181612b2d565b92915050565b600060208284031215611fcd57611fcc6128e9565b5b6000611fdb84828501611f35565b91505092915050565b60008060408385031215611ffb57611ffa6128e9565b5b600061200985828601611f35565b925050602061201a85828601611f8d565b9150509250929050565b60006020828403121561203a576120396128e9565b5b600061204884828501611f4a565b91505092915050565b600060208284031215612067576120666128e9565b5b600082013567ffffffffffffffff811115612085576120846128e4565b5b61209184828501611f5f565b91505092915050565b600080604083850312156120b1576120b06128e9565b5b600083013567ffffffffffffffff8111156120cf576120ce6128e4565b5b6120db85828601611f5f565b92505060206120ec85828601611f35565b9150509250929050565b60008060006060848603121561210f5761210e6128e9565b5b600084013567ffffffffffffffff81111561212d5761212c6128e4565b5b61213986828701611f5f565b935050602061214a86828701611f8d565b925050604061215b86828701611f35565b9150509250925092565b60006020828403121561217b5761217a6128e9565b5b600061218984828501611fa2565b91505092915050565b61219b816126de565b82525050565b6121aa816126f0565b82525050565b600081546121bd81612772565b6121c781866125d3565b945060018216600081146121e257600181146121f357612226565b60ff19831686528186019350612226565b6121fc856125b3565b60005b8381101561221e578154818901526001820191506020810190506121ff565b838801955050505b50505092915050565b600061223a826125c8565b61224481856125de565b935061225481856020860161273f565b61225d816128ee565b840191505092915050565b6000612273826125c8565b61227d81856125ef565b935061228d81856020860161273f565b80840191505092915050565b60006122a66024836125de565b91506122b1826128ff565b604082019050919050565b60006122c96030836125de565b91506122d48261294e565b604082019050919050565b60006122ec6022836125de565b91506122f78261299d565b604082019050919050565b600061230f6024836125de565b915061231a826129ec565b604082019050919050565b6000612332604b836125de565b915061233d82612a3b565b606082019050919050565b60006123556023836125de565b915061236082612ab0565b604082019050919050565b61237481612726565b82525050565b600061238682846121b0565b915081905092915050565b600061239d8284612268565b915081905092915050565b60006020820190506123bd6000830184612192565b92915050565b60006040820190506123d86000830185612192565b6123e56020830184612192565b9392505050565b60006040820190506124016000830185612192565b61240e602083018461236b565b9392505050565b600060208201905061242a60008301846121a1565b92915050565b6000602082019050818103600083015261244a818461222f565b905092915050565b6000604082019050818103600083015261246c818561222f565b905061247b602083018461236b565b9392505050565b6000602082019050818103600083015261249b81612299565b9050919050565b600060208201905081810360008301526124bb816122bc565b9050919050565b600060208201905081810360008301526124db816122df565b9050919050565b600060208201905081810360008301526124fb81612302565b9050919050565b6000602082019050818103600083015261251b81612325565b9050919050565b6000602082019050818103600083015261253b81612348565b9050919050565b6000602082019050612557600083018461236b565b92915050565b6000612567612578565b905061257382826127a4565b919050565b6000604051905090565b600067ffffffffffffffff82111561259d5761259c6128ab565b5b6125a6826128ee565b9050602081019050919050565b60008190508160005260206000209050919050565b600081519050919050565b600081905092915050565b600082825260208201905092915050565b600081905092915050565b600061260582612726565b915061261083612726565b9250827fffffffffffffffffffffffffffffffffffffffffffffffffffffffffffffffff038211156126455761264461281e565b5b828201905092915050565b600061265b82612726565b915061266683612726565b9250817fffffffffffffffffffffffffffffffffffffffffffffffffffffffffffffffff048311821515161561269f5761269e61281e565b5b828202905092915050565b60006126b582612726565b91506126c083612726565b9250828210156126d3576126d261281e565b5b828203905092915050565b60006126e982612706565b9050919050565b60008115159050919050565b6000819050919050565b600073ffffffffffffffffffffffffffffffffffffffff82169050919050565b6000819050919050565b82818337600083830152505050565b60005b8381101561275d578082015181840152602081019050612742565b8381111561276c576000848401525b50505050565b6000600282049050600182168061278a57607f821691505b6020821081141561279e5761279d61284d565b5b50919050565b6127ad826128ee565b810181811067ffffffffffffffff821117156127cc576127cb6128ab565b5b80604052505050565b60006127e082612726565b91507fffffffffffffffffffffffffffffffffffffffffffffffffffffffffffffffff8214156128135761281261281e565b5b600182019050919050565b7f4e487b7100000000000000000000000000000000000000000000000000000000600052601160045260246000fd5b7f4e487b7100000000000000000000000000000000000000000000000000000000600052602260045260246000fd5b7f4e487b7100000000000000000000000000000000000000000000000000000000600052603260045260246000fd5b7f4e487b7100000000000000000000000000000000000000000000000000000000600052604160045260246000fd5b600080fd5b600080fd5b600080fd5b600080fd5b6000601f19601f8301169050919050565b7f546865206164647265737320706172616d657465722063616e6e6f742062652060008201527f6e756c6c00000000000000000000000000000000000000000000000000000000602082015250565b7f54686520616d6f756e7420706172616d657465722068617320746f206265206760008201527f726561746572207468616e207a65726f00000000000000000000000000000000602082015250565b7f546865207573657220686173206e6f7420656e6f75676820636f6c6c6174657260008201527f616c000000000000000000000000000000000000000000000000000000000000602082015250565b7f5468652073796d626f6c20706172616d657465722063616e6e6f74206265206560008201527f6d70747900000000000000000000000000000000000000000000000000000000602082015250565b7f546865207573657220646f6573206e6f7420686f6c64206173206d616e79206f60008201527f72206d6f72652073796e7468657469632061737365747320617320686520776160208201527f6e747320746f206275726e000000000000000000000000000000000000000000604082015250565b7f4f6e6c7920746865206f776e65722063616e2063616c6c2074686973206d657460008201527f686f640000000000000000000000000000000000000000000000000000000000602082015250565b612b08816126de565b8114612b1357600080fd5b50565b612b1f816126fc565b8114612b2a57600080fd5b50565b612b3681612726565b8114612b4157600080fd5b5056fea26469706673582212205697d35ee8a462c9c652e69a03522d906dd98cbc9beb6279d5e63eb446518d5a64736f6c63430008070033",
  "linkReferences": {},
  "deployedLinkReferences": {}
}