{
  "_format": "hh-sol-artifact-1",
  "contractName": "CollateralFundV1",
  "sourceName": "contracts/CollateralFundV1.sol",
  "abi": [
    {
      "inputs": [
        {
          "internalType": "address",
          "name": "_usdcAddress",
          "type": "address"
        },
        {
          "internalType": "address",
          "name": "_hubAddress",
          "type": "address"
        }
      ],
      "stateMutability": "nonpayable",
      "type": "constructor"
    },
    {
      "anonymous": false,
      "inputs": [
        {
          "indexed": true,
          "internalType": "address",
          "name": "addr",
          "type": "address"
        },
        {
          "indexed": false,
          "internalType": "uint256",
          "name": "previousAmount",
          "type": "uint256"
        },
        {
          "indexed": false,
          "internalType": "uint256",
          "name": "newAmount",
          "type": "uint256"
        }
      ],
      "name": "CollateralAmountUpdated",
      "type": "event"
    },
    {
      "anonymous": false,
      "inputs": [
        {
          "indexed": true,
          "internalType": "address",
          "name": "addr",
          "type": "address"
        },
        {
          "indexed": false,
          "internalType": "uint256",
          "name": "amount",
          "type": "uint256"
        },
        {
          "indexed": false,
          "internalType": "uint256",
          "name": "updatedUserCollateralAmount",
          "type": "uint256"
        }
      ],
      "name": "Deposit",
      "type": "event"
    },
    {
      "anonymous": false,
      "inputs": [
        {
          "indexed": false,
          "internalType": "address",
          "name": "oldAddress",
          "type": "address"
        },
        {
          "indexed": false,
          "internalType": "address",
          "name": "newAddress",
          "type": "address"
        }
      ],
      "name": "HubAddressUpdated",
      "type": "event"
    },
    {
      "anonymous": false,
      "inputs": [
        {
          "indexed": false,
          "internalType": "address",
          "name": "addr",
          "type": "address"
        }
      ],
      "name": "NewFunder",
      "type": "event"
    },
    {
      "anonymous": false,
      "inputs": [
        {
          "indexed": false,
          "internalType": "address",
          "name": "addr",
          "type": "address"
        }
      ],
      "name": "RemoveFunder",
      "type": "event"
    },
    {
      "anonymous": false,
      "inputs": [
        {
          "indexed": false,
          "internalType": "address",
          "name": "oldAddress",
          "type": "address"
        },
        {
          "indexed": false,
          "internalType": "address",
          "name": "newAddress",
          "type": "address"
        }
      ],
      "name": "USDCTokenAddressUpdated",
      "type": "event"
    },
    {
      "anonymous": false,
      "inputs": [
        {
          "indexed": true,
          "internalType": "address",
          "name": "addr",
          "type": "address"
        },
        {
          "indexed": false,
          "internalType": "uint256",
          "name": "amount",
          "type": "uint256"
        },
        {
          "indexed": false,
          "internalType": "uint256",
          "name": "updatedUserCollateralAmount",
          "type": "uint256"
        }
      ],
      "name": "Withdraw",
      "type": "event"
    },
    {
      "inputs": [
        {
          "internalType": "address",
          "name": "",
          "type": "address"
        }
      ],
      "name": "addressToCollateralAmount",
      "outputs": [
        {
          "internalType": "uint256",
          "name": "",
          "type": "uint256"
        }
      ],
      "stateMutability": "view",
      "type": "function"
    },
    {
      "inputs": [
        {
          "internalType": "address",
          "name": "",
          "type": "address"
        }
      ],
      "name": "addressToFunderStatus",
      "outputs": [
        {
          "internalType": "bool",
          "name": "",
          "type": "bool"
        }
      ],
      "stateMutability": "view",
      "type": "function"
    },
    {
      "inputs": [
        {
          "internalType": "uint256",
          "name": "_amount",
          "type": "uint256"
        }
      ],
      "name": "deposit",
      "outputs": [],
      "stateMutability": "nonpayable",
      "type": "function"
    },
    {
      "inputs": [
        {
          "internalType": "uint256",
          "name": "",
          "type": "uint256"
        }
      ],
      "name": "funders",
      "outputs": [
        {
          "internalType": "address",
          "name": "",
          "type": "address"
        }
      ],
      "stateMutability": "view",
      "type": "function"
    },
    {
      "inputs": [],
      "name": "getFunders",
      "outputs": [
        {
          "internalType": "address[]",
          "name": "",
          "type": "address[]"
        }
      ],
      "stateMutability": "view",
      "type": "function"
    },
    {
      "inputs": [
        {
          "internalType": "address",
          "name": "_userAddress",
          "type": "address"
        }
      ],
      "name": "getUserCollateralAmount",
      "outputs": [
        {
          "internalType": "uint256",
          "name": "",
          "type": "uint256"
        }
      ],
      "stateMutability": "view",
      "type": "function"
    },
    {
      "inputs": [],
      "name": "hubAddress",
      "outputs": [
        {
          "internalType": "address",
          "name": "",
          "type": "address"
        }
      ],
      "stateMutability": "view",
      "type": "function"
    },
    {
      "inputs": [],
      "name": "owner",
      "outputs": [
        {
          "internalType": "address",
          "name": "",
          "type": "address"
        }
      ],
      "stateMutability": "view",
      "type": "function"
    },
    {
      "inputs": [
        {
          "internalType": "address",
          "name": "_hubAddress",
          "type": "address"
        }
      ],
      "name": "setHubAddress",
      "outputs": [],
      "stateMutability": "nonpayable",
      "type": "function"
    },
    {
      "inputs": [
        {
          "internalType": "address",
          "name": "_usdcAddress",
          "type": "address"
        }
      ],
      "name": "setUsdcAddress",
      "outputs": [],
      "stateMutability": "nonpayable",
      "type": "function"
    },
    {
      "inputs": [
        {
          "internalType": "address",
          "name": "_userAddress",
          "type": "address"
        },
        {
          "internalType": "uint256",
          "name": "_newCollateralAmount",
          "type": "uint256"
        }
      ],
      "name": "setUserCollateralAmount",
      "outputs": [],
      "stateMutability": "nonpayable",
      "type": "function"
    },
    {
      "inputs": [],
      "name": "usdcAddress",
      "outputs": [
        {
          "internalType": "address",
          "name": "",
          "type": "address"
        }
      ],
      "stateMutability": "view",
      "type": "function"
    },
    {
      "inputs": [],
      "name": "usdcContract",
      "outputs": [
        {
          "internalType": "contract IERC20",
          "name": "",
          "type": "address"
        }
      ],
      "stateMutability": "view",
      "type": "function"
    },
    {
      "inputs": [
        {
          "internalType": "uint256",
          "name": "_amount",
          "type": "uint256"
        }
      ],
      "name": "withdraw",
      "outputs": [],
      "stateMutability": "nonpayable",
      "type": "function"
    }
  ],
  "bytecode": "0x60806040523480156200001157600080fd5b5060405162001cad38038062001cad83398181016040528101906200003791906200015a565b33600560006101000a81548173ffffffffffffffffffffffffffffffffffffffff021916908373ffffffffffffffffffffffffffffffffffffffff16021790555081600360006101000a81548173ffffffffffffffffffffffffffffffffffffffff021916908373ffffffffffffffffffffffffffffffffffffffff16021790555081600460006101000a81548173ffffffffffffffffffffffffffffffffffffffff021916908373ffffffffffffffffffffffffffffffffffffffff16021790555080600660006101000a81548173ffffffffffffffffffffffffffffffffffffffff021916908373ffffffffffffffffffffffffffffffffffffffff1602179055505050620001f4565b6000815190506200015481620001da565b92915050565b60008060408385031215620001745762000173620001d5565b5b6000620001848582860162000143565b9250506020620001978582860162000143565b9150509250929050565b6000620001ae82620001b5565b9050919050565b600073ffffffffffffffffffffffffffffffffffffffff82169050919050565b600080fd5b620001e581620001a1565b8114620001f157600080fd5b50565b611aa980620002046000396000f3fe608060405234801561001057600080fd5b50600436106100ea5760003560e01c806399a041451161008c578063d38bcdee11610066578063d38bcdee14610249578063dc0d3dff14610265578063ea63a04414610295578063f69b1b29146102b3576100ea565b806399a04145146101e1578063b6b55f2514610211578063c7eb45221461022d576100ea565b80632e1a7d4d116100c85780632e1a7d4d1461015b57806346d8099e146101775780638da5cb5b1461019357806392e0def9146101b1576100ea565b806302d45457146100ef5780631323e88b1461010d5780631dead1ff1461012b575b600080fd5b6100f76102d1565b6040516101049190611456565b60405180910390f35b6101156102f7565b6040516101229190611537565b60405180910390f35b610145600480360381019061014091906111fc565b61031d565b604051610152919061151c565b60405180910390f35b61017560048036038101906101709190611296565b61033d565b005b610191600480360381019061018c9190611229565b6107d2565b005b61019b6109a7565b6040516101a89190611456565b60405180910390f35b6101cb60048036038101906101c691906111fc565b6109cd565b6040516101d89190611612565b60405180910390f35b6101fb60048036038101906101f691906111fc565b6109e5565b6040516102089190611612565b60405180910390f35b61022b60048036038101906102269190611296565b610a2d565b005b610247600480360381019061024291906111fc565b610d4b565b005b610263600480360381019061025e91906111fc565b610eea565b005b61027f600480360381019061027a9190611296565b6110ca565b60405161028c9190611456565b60405180910390f35b61029d611109565b6040516102aa91906114fa565b60405180910390f35b6102bb611197565b6040516102c89190611456565b60405180910390f35b600360009054906101000a900473ffffffffffffffffffffffffffffffffffffffff1681565b600460009054906101000a900473ffffffffffffffffffffffffffffffffffffffff1681565b60016020528060005260406000206000915054906101000a900460ff1681565b60008111610380576040517f08c379a0000000000000000000000000000000000000000000000000000000008152600401610377906115d2565b60405180910390fd5b600160003373ffffffffffffffffffffffffffffffffffffffff1673ffffffffffffffffffffffffffffffffffffffff16815260200190815260200160002060009054906101000a900460ff1661040c576040517f08c379a0000000000000000000000000000000000000000000000000000000008152600401610403906115b2565b60405180910390fd5b6000803373ffffffffffffffffffffffffffffffffffffffff1673ffffffffffffffffffffffffffffffffffffffff1681526020019081526020016000205481111561048d576040517f08c379a000000000000000000000000000000000000000000000000000000000815260040161048490611572565b60405180910390fd5b600460009054906101000a900473ffffffffffffffffffffffffffffffffffffffff1673ffffffffffffffffffffffffffffffffffffffff1663a9059cbb33836040518363ffffffff1660e01b81526004016104ea9291906114d1565b602060405180830381600087803b15801561050457600080fd5b505af1158015610518573d6000803e3d6000fd5b505050506040513d601f19601f8201168201806040525081019061053c9190611269565b50806000803373ffffffffffffffffffffffffffffffffffffffff1673ffffffffffffffffffffffffffffffffffffffff168152602001908152602001600020600082825461058b91906116f6565b925050819055503373ffffffffffffffffffffffffffffffffffffffff167f90890809c654f11d6e72a28fa60149770a0d11ec6c92319d6ceb2bb0a4ea1a15826000803373ffffffffffffffffffffffffffffffffffffffff1673ffffffffffffffffffffffffffffffffffffffff1681526020019081526020016000205460405161061892919061162d565b60405180910390a260008060003373ffffffffffffffffffffffffffffffffffffffff1673ffffffffffffffffffffffffffffffffffffffff1681526020019081526020016000205414156107cf576000600160003373ffffffffffffffffffffffffffffffffffffffff1673ffffffffffffffffffffffffffffffffffffffff16815260200190815260200160002060006101000a81548160ff02191690831515021790555060005b6002805490508110156107cd573373ffffffffffffffffffffffffffffffffffffffff16600282815481106106fa576106f9611820565b5b9060005260206000200160009054906101000a900473ffffffffffffffffffffffffffffffffffffffff1673ffffffffffffffffffffffffffffffffffffffff1614156107ba576002818154811061075557610754611820565b5b9060005260206000200160006101000a81549073ffffffffffffffffffffffffffffffffffffffff02191690557f13fe5bc1983f770c956dc636916d4230df9af3f8d7d9a96745a3795a4e79438e336040516107b19190611456565b60405180910390a15b80806107c5906117a8565b9150506106c2565b505b50565b600660009054906101000a900473ffffffffffffffffffffffffffffffffffffffff1673ffffffffffffffffffffffffffffffffffffffff163373ffffffffffffffffffffffffffffffffffffffff1614610862576040517f08c379a000000000000000000000000000000000000000000000000000000000815260040161085990611552565b60405180910390fd5b600073ffffffffffffffffffffffffffffffffffffffff168273ffffffffffffffffffffffffffffffffffffffff1614156108d2576040517f08c379a00000000000000000000000000000000000000000000000000000000081526004016108c990611592565b60405180910390fd5b8173ffffffffffffffffffffffffffffffffffffffff167fd6a6f22ebd7f2c80eec70b1ee99b320c76a633506e91a8d3a7645a05e944b0b26000808573ffffffffffffffffffffffffffffffffffffffff1673ffffffffffffffffffffffffffffffffffffffff168152602001908152602001600020548360405161095892919061162d565b60405180910390a2806000808473ffffffffffffffffffffffffffffffffffffffff1673ffffffffffffffffffffffffffffffffffffffff168152602001908152602001600020819055505050565b600560009054906101000a900473ffffffffffffffffffffffffffffffffffffffff1681565b60006020528060005260406000206000915090505481565b60008060008373ffffffffffffffffffffffffffffffffffffffff1673ffffffffffffffffffffffffffffffffffffffff168152602001908152602001600020549050919050565b60008111610a70576040517f08c379a0000000000000000000000000000000000000000000000000000000008152600401610a67906115d2565b60405180910390fd5b600460009054906101000a900473ffffffffffffffffffffffffffffffffffffffff1673ffffffffffffffffffffffffffffffffffffffff166323b872dd3330846040518463ffffffff1660e01b8152600401610acf9392919061149a565b602060405180830381600087803b158015610ae957600080fd5b505af1158015610afd573d6000803e3d6000fd5b505050506040513d601f19601f82011682018060405250810190610b219190611269565b50806000803373ffffffffffffffffffffffffffffffffffffffff1673ffffffffffffffffffffffffffffffffffffffff1681526020019081526020016000206000828254610b7091906116a0565b925050819055503373ffffffffffffffffffffffffffffffffffffffff167f90890809c654f11d6e72a28fa60149770a0d11ec6c92319d6ceb2bb0a4ea1a15826000803373ffffffffffffffffffffffffffffffffffffffff1673ffffffffffffffffffffffffffffffffffffffff16815260200190815260200160002054604051610bfd92919061162d565b60405180910390a2600160003373ffffffffffffffffffffffffffffffffffffffff1673ffffffffffffffffffffffffffffffffffffffff16815260200190815260200160002060009054906101000a900460ff16610d485760018060003373ffffffffffffffffffffffffffffffffffffffff1673ffffffffffffffffffffffffffffffffffffffff16815260200190815260200160002060006101000a81548160ff0219169083151502179055506002339080600181540180825580915050600190039060005260206000200160009091909190916101000a81548173ffffffffffffffffffffffffffffffffffffffff021916908373ffffffffffffffffffffffffffffffffffffffff1602179055507f3b1340f912d80d8cd69877f58cb826f90448f83812ba0ce34b901ac6782f080433604051610d3f9190611456565b60405180910390a15b50565b600560009054906101000a900473ffffffffffffffffffffffffffffffffffffffff1673ffffffffffffffffffffffffffffffffffffffff163373ffffffffffffffffffffffffffffffffffffffff1614610ddb576040517f08c379a0000000000000000000000000000000000000000000000000000000008152600401610dd2906115f2565b60405180910390fd5b600073ffffffffffffffffffffffffffffffffffffffff168173ffffffffffffffffffffffffffffffffffffffff161415610e4b576040517f08c379a0000000000000000000000000000000000000000000000000000000008152600401610e4290611592565b60405180910390fd5b7f9d55ee299f19e2fd96d4dfd4e5bb68648bab49468c5d42e4b86e46bc6c40859f600660009054906101000a900473ffffffffffffffffffffffffffffffffffffffff1682604051610e9e929190611471565b60405180910390a180600660006101000a81548173ffffffffffffffffffffffffffffffffffffffff021916908373ffffffffffffffffffffffffffffffffffffffff16021790555050565b600560009054906101000a900473ffffffffffffffffffffffffffffffffffffffff1673ffffffffffffffffffffffffffffffffffffffff163373ffffffffffffffffffffffffffffffffffffffff1614610f7a576040517f08c379a0000000000000000000000000000000000000000000000000000000008152600401610f71906115f2565b60405180910390fd5b600073ffffffffffffffffffffffffffffffffffffffff168173ffffffffffffffffffffffffffffffffffffffff161415610fea576040517f08c379a0000000000000000000000000000000000000000000000000000000008152600401610fe190611592565b60405180910390fd5b7fb901fe574578be0266f546b6a7402d2d41ff562025f50bdc27a2204347dbc148600360009054906101000a900473ffffffffffffffffffffffffffffffffffffffff168260405161103d929190611471565b60405180910390a180600360006101000a81548173ffffffffffffffffffffffffffffffffffffffff021916908373ffffffffffffffffffffffffffffffffffffffff16021790555080600460006101000a81548173ffffffffffffffffffffffffffffffffffffffff021916908373ffffffffffffffffffffffffffffffffffffffff16021790555050565b600281815481106110da57600080fd5b906000526020600020016000915054906101000a900473ffffffffffffffffffffffffffffffffffffffff1681565b6060600280548060200260200160405190810160405280929190818152602001828054801561118d57602002820191906000526020600020905b8160009054906101000a900473ffffffffffffffffffffffffffffffffffffffff1673ffffffffffffffffffffffffffffffffffffffff1681526020019060010190808311611143575b5050505050905090565b600660009054906101000a900473ffffffffffffffffffffffffffffffffffffffff1681565b6000813590506111cc81611a2e565b92915050565b6000815190506111e181611a45565b92915050565b6000813590506111f681611a5c565b92915050565b6000602082840312156112125761121161184f565b5b6000611220848285016111bd565b91505092915050565b600080604083850312156112405761123f61184f565b5b600061124e858286016111bd565b925050602061125f858286016111e7565b9150509250929050565b60006020828403121561127f5761127e61184f565b5b600061128d848285016111d2565b91505092915050565b6000602082840312156112ac576112ab61184f565b5b60006112ba848285016111e7565b91505092915050565b60006112cf83836112db565b60208301905092915050565b6112e48161172a565b82525050565b6112f38161172a565b82525050565b600061130482611666565b61130e818561167e565b935061131983611656565b8060005b8381101561134a57815161133188826112c3565b975061133c83611671565b92505060018101905061131d565b5085935050505092915050565b6113608161173c565b82525050565b61136f81611772565b82525050565b600061138260218361168f565b915061138d82611854565b604082019050919050565b60006113a560348361168f565b91506113b0826118a3565b604082019050919050565b60006113c860248361168f565b91506113d3826118f2565b604082019050919050565b60006113eb60358361168f565b91506113f682611941565b604082019050919050565b600061140e60228361168f565b915061141982611990565b604082019050919050565b600061143160238361168f565b915061143c826119df565b604082019050919050565b61145081611768565b82525050565b600060208201905061146b60008301846112ea565b92915050565b600060408201905061148660008301856112ea565b61149360208301846112ea565b9392505050565b60006060820190506114af60008301866112ea565b6114bc60208301856112ea565b6114c96040830184611447565b949350505050565b60006040820190506114e660008301856112ea565b6114f36020830184611447565b9392505050565b6000602082019050818103600083015261151481846112f9565b905092915050565b60006020820190506115316000830184611357565b92915050565b600060208201905061154c6000830184611366565b92915050565b6000602082019050818103600083015261156b81611375565b9050919050565b6000602082019050818103600083015261158b81611398565b9050919050565b600060208201905081810360008301526115ab816113bb565b9050919050565b600060208201905081810360008301526115cb816113de565b9050919050565b600060208201905081810360008301526115eb81611401565b9050919050565b6000602082019050818103600083015261160b81611424565b9050919050565b60006020820190506116276000830184611447565b92915050565b60006040820190506116426000830185611447565b61164f6020830184611447565b9392505050565b6000819050602082019050919050565b600081519050919050565b6000602082019050919050565b600082825260208201905092915050565b600082825260208201905092915050565b60006116ab82611768565b91506116b683611768565b9250827fffffffffffffffffffffffffffffffffffffffffffffffffffffffffffffffff038211156116eb576116ea6117f1565b5b828201905092915050565b600061170182611768565b915061170c83611768565b92508282101561171f5761171e6117f1565b5b828203905092915050565b600061173582611748565b9050919050565b60008115159050919050565b600073ffffffffffffffffffffffffffffffffffffffff82169050919050565b6000819050919050565b600061177d82611784565b9050919050565b600061178f82611796565b9050919050565b60006117a182611748565b9050919050565b60006117b382611768565b91507fffffffffffffffffffffffffffffffffffffffffffffffffffffffffffffffff8214156117e6576117e56117f1565b5b600182019050919050565b7f4e487b7100000000000000000000000000000000000000000000000000000000600052601160045260246000fd5b7f4e487b7100000000000000000000000000000000000000000000000000000000600052603260045260246000fd5b600080fd5b7f4f6e6c7920746865206875622063616e2063616c6c2074686973206d6574686f60008201527f6400000000000000000000000000000000000000000000000000000000000000602082015250565b7f54686520757365722063616e6e6f74207769746864726177206d6f726520746860008201527f616e2077686174206865206465706f7369746564000000000000000000000000602082015250565b7f546865206164647265737320706172616d657465722063616e6e6f742062652060008201527f6e756c6c00000000000000000000000000000000000000000000000000000000602082015250565b7f546865207573657220686173206e6f74206465706f736974656420616e79206360008201527f6f6c6c61746572616c20746f207468652066756e640000000000000000000000602082015250565b7f416d6f756e742073686f756c642062652067726561746f72207468616e207a6560008201527f726f000000000000000000000000000000000000000000000000000000000000602082015250565b7f4f6e6c7920746865206f776e65722063616e2063616c6c2074686973206d657460008201527f686f640000000000000000000000000000000000000000000000000000000000602082015250565b611a378161172a565b8114611a4257600080fd5b50565b611a4e8161173c565b8114611a5957600080fd5b50565b611a6581611768565b8114611a7057600080fd5b5056fea2646970667358221220ab912ea75a037d3542892a650b4f21afec82633ddbf1e0bf244a2e0954ceea2e64736f6c63430008070033",
  "linkReferences": {},
  "deployedLinkReferences": {}
}