{
  "_format": "hh-sol-artifact-1",
  "contractName": "SyntheticAssetV1",
  "sourceName": "contracts/SyntheticAssetV1.sol",
  "abi": [
    {
      "inputs": [
        {
          "internalType": "string",
          "name": "_name",
          "type": "string"
        },
        {
          "internalType": "string",
          "name": "_symbol",
          "type": "string"
        },
        {
          "internalType": "address",
          "name": "_hubAddress",
          "type": "address"
        }
      ],
      "stateMutability": "nonpayable",
      "type": "constructor"
    },
    {
      "anonymous": false,
      "inputs": [
        {
          "indexed": true,
          "internalType": "address",
          "name": "owner",
          "type": "address"
        },
        {
          "indexed": true,
          "internalType": "address",
          "name": "spender",
          "type": "address"
        },
        {
          "indexed": false,
          "internalType": "uint256",
          "name": "value",
          "type": "uint256"
        }
      ],
      "name": "Approval",
      "type": "event"
    },
    {
      "anonymous": false,
      "inputs": [
        {
          "indexed": true,
          "internalType": "address",
          "name": "addr",
          "type": "address"
        },
        {
          "indexed": false,
          "internalType": "uint256",
          "name": "amount",
          "type": "uint256"
        }
      ],
      "name": "Burn",
      "type": "event"
    },
    {
      "anonymous": false,
      "inputs": [
        {
          "indexed": false,
          "internalType": "address",
          "name": "oldAddress",
          "type": "address"
        },
        {
          "indexed": false,
          "internalType": "address",
          "name": "newAddress",
          "type": "address"
        }
      ],
      "name": "HubAddressUpdated",
      "type": "event"
    },
    {
      "anonymous": false,
      "inputs": [
        {
          "indexed": true,
          "internalType": "address",
          "name": "addr",
          "type": "address"
        },
        {
          "indexed": false,
          "internalType": "uint256",
          "name": "amount",
          "type": "uint256"
        }
      ],
      "name": "Mint",
      "type": "event"
    },
    {
      "anonymous": false,
      "inputs": [
        {
          "indexed": true,
          "internalType": "address",
          "name": "from",
          "type": "address"
        },
        {
          "indexed": true,
          "internalType": "address",
          "name": "to",
          "type": "address"
        },
        {
          "indexed": false,
          "internalType": "uint256",
          "name": "value",
          "type": "uint256"
        }
      ],
      "name": "Transfer",
      "type": "event"
    },
    {
      "inputs": [
        {
          "internalType": "address",
          "name": "",
          "type": "address"
        }
      ],
      "name": "addressToAmountEligibleToBurn",
      "outputs": [
        {
          "internalType": "uint256",
          "name": "",
          "type": "uint256"
        }
      ],
      "stateMutability": "view",
      "type": "function"
    },
    {
      "inputs": [
        {
          "internalType": "address",
          "name": "owner",
          "type": "address"
        },
        {
          "internalType": "address",
          "name": "spender",
          "type": "address"
        }
      ],
      "name": "allowance",
      "outputs": [
        {
          "internalType": "uint256",
          "name": "",
          "type": "uint256"
        }
      ],
      "stateMutability": "view",
      "type": "function"
    },
    {
      "inputs": [
        {
          "internalType": "address",
          "name": "spender",
          "type": "address"
        },
        {
          "internalType": "uint256",
          "name": "amount",
          "type": "uint256"
        }
      ],
      "name": "approve",
      "outputs": [
        {
          "internalType": "bool",
          "name": "",
          "type": "bool"
        }
      ],
      "stateMutability": "nonpayable",
      "type": "function"
    },
    {
      "inputs": [
        {
          "internalType": "address",
          "name": "account",
          "type": "address"
        }
      ],
      "name": "balanceOf",
      "outputs": [
        {
          "internalType": "uint256",
          "name": "",
          "type": "uint256"
        }
      ],
      "stateMutability": "view",
      "type": "function"
    },
    {
      "inputs": [
        {
          "internalType": "address",
          "name": "_userAddress",
          "type": "address"
        },
        {
          "internalType": "uint256",
          "name": "_amount",
          "type": "uint256"
        }
      ],
      "name": "burn",
      "outputs": [],
      "stateMutability": "nonpayable",
      "type": "function"
    },
    {
      "inputs": [],
      "name": "decimals",
      "outputs": [
        {
          "internalType": "uint8",
          "name": "",
          "type": "uint8"
        }
      ],
      "stateMutability": "view",
      "type": "function"
    },
    {
      "inputs": [
        {
          "internalType": "address",
          "name": "spender",
          "type": "address"
        },
        {
          "internalType": "uint256",
          "name": "subtractedValue",
          "type": "uint256"
        }
      ],
      "name": "decreaseAllowance",
      "outputs": [
        {
          "internalType": "bool",
          "name": "",
          "type": "bool"
        }
      ],
      "stateMutability": "nonpayable",
      "type": "function"
    },
    {
      "inputs": [
        {
          "internalType": "address",
          "name": "_userAddress",
          "type": "address"
        }
      ],
      "name": "getAmountEligibleToBurn",
      "outputs": [
        {
          "internalType": "uint256",
          "name": "",
          "type": "uint256"
        }
      ],
      "stateMutability": "view",
      "type": "function"
    },
    {
      "inputs": [],
      "name": "hubAddress",
      "outputs": [
        {
          "internalType": "address",
          "name": "",
          "type": "address"
        }
      ],
      "stateMutability": "view",
      "type": "function"
    },
    {
      "inputs": [
        {
          "internalType": "address",
          "name": "spender",
          "type": "address"
        },
        {
          "internalType": "uint256",
          "name": "addedValue",
          "type": "uint256"
        }
      ],
      "name": "increaseAllowance",
      "outputs": [
        {
          "internalType": "bool",
          "name": "",
          "type": "bool"
        }
      ],
      "stateMutability": "nonpayable",
      "type": "function"
    },
    {
      "inputs": [
        {
          "internalType": "address",
          "name": "_userAddress",
          "type": "address"
        },
        {
          "internalType": "uint256",
          "name": "_amount",
          "type": "uint256"
        }
      ],
      "name": "mint",
      "outputs": [],
      "stateMutability": "nonpayable",
      "type": "function"
    },
    {
      "inputs": [],
      "name": "name",
      "outputs": [
        {
          "internalType": "string",
          "name": "",
          "type": "string"
        }
      ],
      "stateMutability": "view",
      "type": "function"
    },
    {
      "inputs": [],
      "name": "owner",
      "outputs": [
        {
          "internalType": "address",
          "name": "",
          "type": "address"
        }
      ],
      "stateMutability": "view",
      "type": "function"
    },
    {
      "inputs": [
        {
          "internalType": "address",
          "name": "_userAddress",
          "type": "address"
        },
        {
          "internalType": "uint256",
          "name": "_amount",
          "type": "uint256"
        }
      ],
      "name": "setAmountEligibleToBurn",
      "outputs": [],
      "stateMutability": "nonpayable",
      "type": "function"
    },
    {
      "inputs": [
        {
          "internalType": "address",
          "name": "_hubAddress",
          "type": "address"
        }
      ],
      "name": "setHubAddress",
      "outputs": [],
      "stateMutability": "nonpayable",
      "type": "function"
    },
    {
      "inputs": [],
      "name": "symbol",
      "outputs": [
        {
          "internalType": "string",
          "name": "",
          "type": "string"
        }
      ],
      "stateMutability": "view",
      "type": "function"
    },
    {
      "inputs": [],
      "name": "totalSupply",
      "outputs": [
        {
          "internalType": "uint256",
          "name": "",
          "type": "uint256"
        }
      ],
      "stateMutability": "view",
      "type": "function"
    },
    {
      "inputs": [
        {
          "internalType": "address",
          "name": "to",
          "type": "address"
        },
        {
          "internalType": "uint256",
          "name": "amount",
          "type": "uint256"
        }
      ],
      "name": "transfer",
      "outputs": [
        {
          "internalType": "bool",
          "name": "",
          "type": "bool"
        }
      ],
      "stateMutability": "nonpayable",
      "type": "function"
    },
    {
      "inputs": [
        {
          "internalType": "address",
          "name": "from",
          "type": "address"
        },
        {
          "internalType": "address",
          "name": "to",
          "type": "address"
        },
        {
          "internalType": "uint256",
          "name": "amount",
          "type": "uint256"
        }
      ],
      "name": "transferFrom",
      "outputs": [
        {
          "internalType": "bool",
          "name": "",
          "type": "bool"
        }
      ],
      "stateMutability": "nonpayable",
      "type": "function"
    }
  ],
  "bytecode": "0x60806040523480156200001157600080fd5b50604051620029fc380380620029fc83398181016040528101906200003791906200023d565b8282816003908051906020019062000051929190620000f8565b5080600490805190602001906200006a929190620000f8565b50505033600660006101000a81548173ffffffffffffffffffffffffffffffffffffffff021916908373ffffffffffffffffffffffffffffffffffffffff16021790555080600760006101000a81548173ffffffffffffffffffffffffffffffffffffffff021916908373ffffffffffffffffffffffffffffffffffffffff160217905550505050620004a9565b8280546200010690620003a0565b90600052602060002090601f0160209004810192826200012a576000855562000176565b82601f106200014557805160ff191683800117855562000176565b8280016001018555821562000176579182015b828111156200017557825182559160200191906001019062000158565b5b50905062000185919062000189565b5090565b5b80821115620001a45760008160009055506001016200018a565b5090565b6000620001bf620001b98462000300565b620002d7565b905082815260208101848484011115620001de57620001dd6200046f565b5b620001eb8482856200036a565b509392505050565b60008151905062000204816200048f565b92915050565b600082601f8301126200022257620002216200046a565b5b815162000234848260208601620001a8565b91505092915050565b60008060006060848603121562000259576200025862000479565b5b600084015167ffffffffffffffff8111156200027a576200027962000474565b5b62000288868287016200020a565b935050602084015167ffffffffffffffff811115620002ac57620002ab62000474565b5b620002ba868287016200020a565b9250506040620002cd86828701620001f3565b9150509250925092565b6000620002e3620002f6565b9050620002f18282620003d6565b919050565b6000604051905090565b600067ffffffffffffffff8211156200031e576200031d6200043b565b5b62000329826200047e565b9050602081019050919050565b600062000343826200034a565b9050919050565b600073ffffffffffffffffffffffffffffffffffffffff82169050919050565b60005b838110156200038a5780820151818401526020810190506200036d565b838111156200039a576000848401525b50505050565b60006002820490506001821680620003b957607f821691505b60208210811415620003d057620003cf6200040c565b5b50919050565b620003e1826200047e565b810181811067ffffffffffffffff821117156200040357620004026200043b565b5b80604052505050565b7f4e487b7100000000000000000000000000000000000000000000000000000000600052602260045260246000fd5b7f4e487b7100000000000000000000000000000000000000000000000000000000600052604160045260246000fd5b600080fd5b600080fd5b600080fd5b600080fd5b6000601f19601f8301169050919050565b6200049a8162000336565b8114620004a657600080fd5b50565b61254380620004b96000396000f3fe608060405234801561001057600080fd5b50600436106101215760003560e01c80638ced1a63116100ad578063a9059cbb11610071578063a9059cbb14610330578063c1d5276e14610360578063c7eb452214610390578063dd62ed3e146103ac578063f69b1b29146103dc57610121565b80638ced1a63146102785780638da5cb5b146102a857806395d89b41146102c65780639dc29fac146102e4578063a457c2d71461030057610121565b8063313ce567116100f4578063313ce567146101c257806339509351146101e057806340c10f191461021057806370a082311461022c5780637f2494b01461025c57610121565b806306fdde0314610126578063095ea7b31461014457806318160ddd1461017457806323b872dd14610192575b600080fd5b61012e6103fa565b60405161013b9190611ca4565b60405180910390f35b61015e60048036038101906101599190611983565b61048c565b60405161016b9190611c89565b60405180910390f35b61017c6104af565b6040516101899190611ea6565b60405180910390f35b6101ac60048036038101906101a79190611930565b6104b9565b6040516101b99190611c89565b60405180910390f35b6101ca6104e8565b6040516101d79190611ec1565b60405180910390f35b6101fa60048036038101906101f59190611983565b6104f1565b6040516102079190611c89565b60405180910390f35b61022a60048036038101906102259190611983565b61059b565b005b610246600480360381019061024191906118c3565b610790565b6040516102539190611ea6565b60405180910390f35b61027660048036038101906102719190611983565b6107d8565b005b610292600480360381019061028d91906118c3565b610920565b60405161029f9190611ea6565b60405180910390f35b6102b06109d8565b6040516102bd9190611c45565b60405180910390f35b6102ce6109fe565b6040516102db9190611ca4565b60405180910390f35b6102fe60048036038101906102f99190611983565b610a90565b005b61031a60048036038101906103159190611983565b610d07565b6040516103279190611c89565b60405180910390f35b61034a60048036038101906103459190611983565b610df1565b6040516103579190611c89565b60405180910390f35b61037a600480360381019061037591906118c3565b610e14565b6040516103879190611ea6565b60405180910390f35b6103aa60048036038101906103a591906118c3565b610e2c565b005b6103c660048036038101906103c191906118f0565b610fcb565b6040516103d39190611ea6565b60405180910390f35b6103e4611052565b6040516103f19190611c45565b60405180910390f35b6060600380546104099061200a565b80601f01602080910402602001604051908101604052809291908181526020018280546104359061200a565b80156104825780601f1061045757610100808354040283529160200191610482565b820191906000526020600020905b81548152906001019060200180831161046557829003601f168201915b5050505050905090565b600080610497611078565b90506104a4818585611080565b600191505092915050565b6000600254905090565b6000806104c4611078565b90506104d185828561124b565b6104dc8585856112d7565b60019150509392505050565b60006012905090565b6000806104fc611078565b9050610590818585600160008673ffffffffffffffffffffffffffffffffffffffff1673ffffffffffffffffffffffffffffffffffffffff16815260200190815260200160002060008973ffffffffffffffffffffffffffffffffffffffff1673ffffffffffffffffffffffffffffffffffffffff1681526020019081526020016000205461058b9190611ef8565b611080565b600191505092915050565b600760009054906101000a900473ffffffffffffffffffffffffffffffffffffffff1673ffffffffffffffffffffffffffffffffffffffff163373ffffffffffffffffffffffffffffffffffffffff161461062b576040517f08c379a000000000000000000000000000000000000000000000000000000000815260040161062290611ce6565b60405180910390fd5b600073ffffffffffffffffffffffffffffffffffffffff168273ffffffffffffffffffffffffffffffffffffffff16141561069b576040517f08c379a000000000000000000000000000000000000000000000000000000000815260040161069290611da6565b60405180910390fd5b600081116106de576040517f08c379a00000000000000000000000000000000000000000000000000000000081526004016106d590611e06565b60405180910390fd5b6106e88282611558565b80600560008473ffffffffffffffffffffffffffffffffffffffff1673ffffffffffffffffffffffffffffffffffffffff16815260200190815260200160002060008282546107379190611ef8565b925050819055508173ffffffffffffffffffffffffffffffffffffffff167f0f6798a560793a54c3bcfe86a93cde1e73087d944c0ea20544137d4121396885826040516107849190611ea6565b60405180910390a25050565b60008060008373ffffffffffffffffffffffffffffffffffffffff1673ffffffffffffffffffffffffffffffffffffffff168152602001908152602001600020549050919050565b600760009054906101000a900473ffffffffffffffffffffffffffffffffffffffff1673ffffffffffffffffffffffffffffffffffffffff163373ffffffffffffffffffffffffffffffffffffffff1614610868576040517f08c379a000000000000000000000000000000000000000000000000000000000815260040161085f90611ce6565b60405180910390fd5b600073ffffffffffffffffffffffffffffffffffffffff168273ffffffffffffffffffffffffffffffffffffffff1614156108d8576040517f08c379a00000000000000000000000000000000000000000000000000000000081526004016108cf90611da6565b60405180910390fd5b80600560008473ffffffffffffffffffffffffffffffffffffffff1673ffffffffffffffffffffffffffffffffffffffff168152602001908152602001600020819055505050565b60008073ffffffffffffffffffffffffffffffffffffffff168273ffffffffffffffffffffffffffffffffffffffff161415610991576040517f08c379a000000000000000000000000000000000000000000000000000000000815260040161098890611da6565b60405180910390fd5b600560008373ffffffffffffffffffffffffffffffffffffffff1673ffffffffffffffffffffffffffffffffffffffff168152602001908152602001600020549050919050565b600660009054906101000a900473ffffffffffffffffffffffffffffffffffffffff1681565b606060048054610a0d9061200a565b80601f0160208091040260200160405190810160405280929190818152602001828054610a399061200a565b8015610a865780601f10610a5b57610100808354040283529160200191610a86565b820191906000526020600020905b815481529060010190602001808311610a6957829003601f168201915b5050505050905090565b600760009054906101000a900473ffffffffffffffffffffffffffffffffffffffff1673ffffffffffffffffffffffffffffffffffffffff163373ffffffffffffffffffffffffffffffffffffffff1614610b20576040517f08c379a0000000000000000000000000000000000000000000000000000000008152600401610b1790611ce6565b60405180910390fd5b600073ffffffffffffffffffffffffffffffffffffffff168273ffffffffffffffffffffffffffffffffffffffff161415610b90576040517f08c379a0000000000000000000000000000000000000000000000000000000008152600401610b8790611da6565b60405180910390fd5b60008111610bd3576040517f08c379a0000000000000000000000000000000000000000000000000000000008152600401610bca90611e06565b60405180910390fd5b600560008373ffffffffffffffffffffffffffffffffffffffff1673ffffffffffffffffffffffffffffffffffffffff16815260200190815260200160002054811115610c55576040517f08c379a0000000000000000000000000000000000000000000000000000000008152600401610c4c90611d86565b60405180910390fd5b610c5f82826116b8565b80600560008473ffffffffffffffffffffffffffffffffffffffff1673ffffffffffffffffffffffffffffffffffffffff1681526020019081526020016000206000828254610cae9190611f4e565b925050819055508173ffffffffffffffffffffffffffffffffffffffff167fcc16f5dbb4873280815c1ee09dbd06736cffcc184412cf7a71a0fdb75d397ca582604051610cfb9190611ea6565b60405180910390a25050565b600080610d12611078565b90506000600160008373ffffffffffffffffffffffffffffffffffffffff1673ffffffffffffffffffffffffffffffffffffffff16815260200190815260200160002060008673ffffffffffffffffffffffffffffffffffffffff1673ffffffffffffffffffffffffffffffffffffffff16815260200190815260200160002054905083811015610dd8576040517f08c379a0000000000000000000000000000000000000000000000000000000008152600401610dcf90611e66565b60405180910390fd5b610de58286868403611080565b60019250505092915050565b600080610dfc611078565b9050610e098185856112d7565b600191505092915050565b60056020528060005260406000206000915090505481565b600660009054906101000a900473ffffffffffffffffffffffffffffffffffffffff1673ffffffffffffffffffffffffffffffffffffffff163373ffffffffffffffffffffffffffffffffffffffff1614610ebc576040517f08c379a0000000000000000000000000000000000000000000000000000000008152600401610eb390611e26565b60405180910390fd5b600073ffffffffffffffffffffffffffffffffffffffff168173ffffffffffffffffffffffffffffffffffffffff161415610f2c576040517f08c379a0000000000000000000000000000000000000000000000000000000008152600401610f2390611da6565b60405180910390fd5b7fb901fe574578be0266f546b6a7402d2d41ff562025f50bdc27a2204347dbc148600760009054906101000a900473ffffffffffffffffffffffffffffffffffffffff1682604051610f7f929190611c60565b60405180910390a180600760006101000a81548173ffffffffffffffffffffffffffffffffffffffff021916908373ffffffffffffffffffffffffffffffffffffffff16021790555050565b6000600160008473ffffffffffffffffffffffffffffffffffffffff1673ffffffffffffffffffffffffffffffffffffffff16815260200190815260200160002060008373ffffffffffffffffffffffffffffffffffffffff1673ffffffffffffffffffffffffffffffffffffffff16815260200190815260200160002054905092915050565b600760009054906101000a900473ffffffffffffffffffffffffffffffffffffffff1681565b600033905090565b600073ffffffffffffffffffffffffffffffffffffffff168373ffffffffffffffffffffffffffffffffffffffff1614156110f0576040517f08c379a00000000000000000000000000000000000000000000000000000000081526004016110e790611e46565b60405180910390fd5b600073ffffffffffffffffffffffffffffffffffffffff168273ffffffffffffffffffffffffffffffffffffffff161415611160576040517f08c379a000000000000000000000000000000000000000000000000000000000815260040161115790611d26565b60405180910390fd5b80600160008573ffffffffffffffffffffffffffffffffffffffff1673ffffffffffffffffffffffffffffffffffffffff16815260200190815260200160002060008473ffffffffffffffffffffffffffffffffffffffff1673ffffffffffffffffffffffffffffffffffffffff168152602001908152602001600020819055508173ffffffffffffffffffffffffffffffffffffffff168373ffffffffffffffffffffffffffffffffffffffff167f8c5be1e5ebec7d5bd14f71427d1e84f3dd0314c0f7b2291e5b200ac8c7c3b9258360405161123e9190611ea6565b60405180910390a3505050565b60006112578484610fcb565b90507fffffffffffffffffffffffffffffffffffffffffffffffffffffffffffffffff81146112d157818110156112c3576040517f08c379a00000000000000000000000000000000000000000000000000000000081526004016112ba90611d46565b60405180910390fd5b6112d08484848403611080565b5b50505050565b600073ffffffffffffffffffffffffffffffffffffffff168373ffffffffffffffffffffffffffffffffffffffff161415611347576040517f08c379a000000000000000000000000000000000000000000000000000000000815260040161133e90611de6565b60405180910390fd5b600073ffffffffffffffffffffffffffffffffffffffff168273ffffffffffffffffffffffffffffffffffffffff1614156113b7576040517f08c379a00000000000000000000000000000000000000000000000000000000081526004016113ae90611cc6565b60405180910390fd5b6113c283838361188f565b60008060008573ffffffffffffffffffffffffffffffffffffffff1673ffffffffffffffffffffffffffffffffffffffff16815260200190815260200160002054905081811015611448576040517f08c379a000000000000000000000000000000000000000000000000000000000815260040161143f90611d66565b60405180910390fd5b8181036000808673ffffffffffffffffffffffffffffffffffffffff1673ffffffffffffffffffffffffffffffffffffffff16815260200190815260200160002081905550816000808573ffffffffffffffffffffffffffffffffffffffff1673ffffffffffffffffffffffffffffffffffffffff16815260200190815260200160002060008282546114db9190611ef8565b925050819055508273ffffffffffffffffffffffffffffffffffffffff168473ffffffffffffffffffffffffffffffffffffffff167fddf252ad1be2c89b69c2b068fc378daa952ba7f163c4a11628f55a4df523b3ef8460405161153f9190611ea6565b60405180910390a3611552848484611894565b50505050565b600073ffffffffffffffffffffffffffffffffffffffff168273ffffffffffffffffffffffffffffffffffffffff1614156115c8576040517f08c379a00000000000000000000000000000000000000000000000000000000081526004016115bf90611e86565b60405180910390fd5b6115d46000838361188f565b80600260008282546115e69190611ef8565b92505081905550806000808473ffffffffffffffffffffffffffffffffffffffff1673ffffffffffffffffffffffffffffffffffffffff168152602001908152602001600020600082825461163b9190611ef8565b925050819055508173ffffffffffffffffffffffffffffffffffffffff16600073ffffffffffffffffffffffffffffffffffffffff167fddf252ad1be2c89b69c2b068fc378daa952ba7f163c4a11628f55a4df523b3ef836040516116a09190611ea6565b60405180910390a36116b460008383611894565b5050565b600073ffffffffffffffffffffffffffffffffffffffff168273ffffffffffffffffffffffffffffffffffffffff161415611728576040517f08c379a000000000000000000000000000000000000000000000000000000000815260040161171f90611dc6565b60405180910390fd5b6117348260008361188f565b60008060008473ffffffffffffffffffffffffffffffffffffffff1673ffffffffffffffffffffffffffffffffffffffff168152602001908152602001600020549050818110156117ba576040517f08c379a00000000000000000000000000000000000000000000000000000000081526004016117b190611d06565b60405180910390fd5b8181036000808573ffffffffffffffffffffffffffffffffffffffff1673ffffffffffffffffffffffffffffffffffffffff1681526020019081526020016000208190555081600260008282546118119190611f4e565b92505081905550600073ffffffffffffffffffffffffffffffffffffffff168373ffffffffffffffffffffffffffffffffffffffff167fddf252ad1be2c89b69c2b068fc378daa952ba7f163c4a11628f55a4df523b3ef846040516118769190611ea6565b60405180910390a361188a83600084611894565b505050565b505050565b505050565b6000813590506118a8816124df565b92915050565b6000813590506118bd816124f6565b92915050565b6000602082840312156118d9576118d861209a565b5b60006118e784828501611899565b91505092915050565b600080604083850312156119075761190661209a565b5b600061191585828601611899565b925050602061192685828601611899565b9150509250929050565b6000806000606084860312156119495761194861209a565b5b600061195786828701611899565b935050602061196886828701611899565b9250506040611979868287016118ae565b9150509250925092565b6000806040838503121561199a5761199961209a565b5b60006119a885828601611899565b92505060206119b9858286016118ae565b9150509250929050565b6119cc81611f82565b82525050565b6119db81611f94565b82525050565b60006119ec82611edc565b6119f68185611ee7565b9350611a06818560208601611fd7565b611a0f8161209f565b840191505092915050565b6000611a27602383611ee7565b9150611a32826120b0565b604082019050919050565b6000611a4a602183611ee7565b9150611a55826120ff565b604082019050919050565b6000611a6d602283611ee7565b9150611a788261214e565b604082019050919050565b6000611a90602283611ee7565b9150611a9b8261219d565b604082019050919050565b6000611ab3601d83611ee7565b9150611abe826121ec565b602082019050919050565b6000611ad6602683611ee7565b9150611ae182612215565b604082019050919050565b6000611af9601e83611ee7565b9150611b0482612264565b602082019050919050565b6000611b1c602483611ee7565b9150611b278261228d565b604082019050919050565b6000611b3f602183611ee7565b9150611b4a826122dc565b604082019050919050565b6000611b62602583611ee7565b9150611b6d8261232b565b604082019050919050565b6000611b85602283611ee7565b9150611b908261237a565b604082019050919050565b6000611ba8602383611ee7565b9150611bb3826123c9565b604082019050919050565b6000611bcb602483611ee7565b9150611bd682612418565b604082019050919050565b6000611bee602583611ee7565b9150611bf982612467565b604082019050919050565b6000611c11601f83611ee7565b9150611c1c826124b6565b602082019050919050565b611c3081611fc0565b82525050565b611c3f81611fca565b82525050565b6000602082019050611c5a60008301846119c3565b92915050565b6000604082019050611c7560008301856119c3565b611c8260208301846119c3565b9392505050565b6000602082019050611c9e60008301846119d2565b92915050565b60006020820190508181036000830152611cbe81846119e1565b905092915050565b60006020820190508181036000830152611cdf81611a1a565b9050919050565b60006020820190508181036000830152611cff81611a3d565b9050919050565b60006020820190508181036000830152611d1f81611a60565b9050919050565b60006020820190508181036000830152611d3f81611a83565b9050919050565b60006020820190508181036000830152611d5f81611aa6565b9050919050565b60006020820190508181036000830152611d7f81611ac9565b9050919050565b60006020820190508181036000830152611d9f81611aec565b9050919050565b60006020820190508181036000830152611dbf81611b0f565b9050919050565b60006020820190508181036000830152611ddf81611b32565b9050919050565b60006020820190508181036000830152611dff81611b55565b9050919050565b60006020820190508181036000830152611e1f81611b78565b9050919050565b60006020820190508181036000830152611e3f81611b9b565b9050919050565b60006020820190508181036000830152611e5f81611bbe565b9050919050565b60006020820190508181036000830152611e7f81611be1565b9050919050565b60006020820190508181036000830152611e9f81611c04565b9050919050565b6000602082019050611ebb6000830184611c27565b92915050565b6000602082019050611ed66000830184611c36565b92915050565b600081519050919050565b600082825260208201905092915050565b6000611f0382611fc0565b9150611f0e83611fc0565b9250827fffffffffffffffffffffffffffffffffffffffffffffffffffffffffffffffff03821115611f4357611f4261203c565b5b828201905092915050565b6000611f5982611fc0565b9150611f6483611fc0565b925082821015611f7757611f7661203c565b5b828203905092915050565b6000611f8d82611fa0565b9050919050565b60008115159050919050565b600073ffffffffffffffffffffffffffffffffffffffff82169050919050565b6000819050919050565b600060ff82169050919050565b60005b83811015611ff5578082015181840152602081019050611fda565b83811115612004576000848401525b50505050565b6000600282049050600182168061202257607f821691505b602082108114156120365761203561206b565b5b50919050565b7f4e487b7100000000000000000000000000000000000000000000000000000000600052601160045260246000fd5b7f4e487b7100000000000000000000000000000000000000000000000000000000600052602260045260246000fd5b600080fd5b6000601f19601f8301169050919050565b7f45524332303a207472616e7366657220746f20746865207a65726f206164647260008201527f6573730000000000000000000000000000000000000000000000000000000000602082015250565b7f4f6e6c7920746865206875622063616e2063616c6c2074686973206d6574686f60008201527f6400000000000000000000000000000000000000000000000000000000000000602082015250565b7f45524332303a206275726e20616d6f756e7420657863656564732062616c616e60008201527f6365000000000000000000000000000000000000000000000000000000000000602082015250565b7f45524332303a20617070726f766520746f20746865207a65726f20616464726560008201527f7373000000000000000000000000000000000000000000000000000000000000602082015250565b7f45524332303a20696e73756666696369656e7420616c6c6f77616e6365000000600082015250565b7f45524332303a207472616e7366657220616d6f756e742065786365656473206260008201527f616c616e63650000000000000000000000000000000000000000000000000000602082015250565b7f546865207573657220686173206e6f7420656e6f756768206173736574730000600082015250565b7f546865206164647265737320706172616d657465722063616e6e6f742062652060008201527f6e756c6c00000000000000000000000000000000000000000000000000000000602082015250565b7f45524332303a206275726e2066726f6d20746865207a65726f2061646472657360008201527f7300000000000000000000000000000000000000000000000000000000000000602082015250565b7f45524332303a207472616e736665722066726f6d20746865207a65726f20616460008201527f6472657373000000000000000000000000000000000000000000000000000000602082015250565b7f416d6f756e742073686f756c642062652067726561746f72207468616e207a6560008201527f726f000000000000000000000000000000000000000000000000000000000000602082015250565b7f4f6e6c7920746865206f776e65722063616e2063616c6c2074686973206d657460008201527f686f640000000000000000000000000000000000000000000000000000000000602082015250565b7f45524332303a20617070726f76652066726f6d20746865207a65726f2061646460008201527f7265737300000000000000000000000000000000000000000000000000000000602082015250565b7f45524332303a2064656372656173656420616c6c6f77616e63652062656c6f7760008201527f207a65726f000000000000000000000000000000000000000000000000000000602082015250565b7f45524332303a206d696e7420746f20746865207a65726f206164647265737300600082015250565b6124e881611f82565b81146124f357600080fd5b50565b6124ff81611fc0565b811461250a57600080fd5b5056fea26469706673582212200d4c187a604af25dd9edc7792715c4cc6395a6666a9bec5a7a3b402554348e6064736f6c63430008070033",
  "linkReferences": {},
  "deployedLinkReferences": {}
}