{
  "_format": "hh-sol-artifact-1",
  "contractName": "PriceTrackerV1",
  "sourceName": "contracts/PriceTrackerV1.sol",
  "abi": [
    {
      "inputs": [
        {
          "internalType": "address",
          "name": "_linkAddress",
          "type": "address"
        },
        {
          "internalType": "address",
          "name": "_aggregatorAddress",
          "type": "address"
        },
        {
          "internalType": "address",
          "name": "_oracleAddress",
          "type": "address"
        },
        {
          "internalType": "bytes32",
          "name": "_jobId",
          "type": "bytes32"
        },
        {
          "internalType": "string",
          "name": "_apiKey",
          "type": "string"
        },
        {
          "internalType": "uint256",
          "name": "_updateInterval",
          "type": "uint256"
        }
      ],
      "stateMutability": "nonpayable",
      "type": "constructor"
    },
    {
      "anonymous": false,
      "inputs": [
        {
          "indexed": false,
          "internalType": "address",
          "name": "oldAddress",
          "type": "address"
        },
        {
          "indexed": false,
          "internalType": "address",
          "name": "newAddress",
          "type": "address"
        }
      ],
      "name": "AggregatorAddressUpdated",
      "type": "event"
    },
    {
      "anonymous": false,
      "inputs": [
        {
          "indexed": false,
          "internalType": "string",
          "name": "oldApiKey",
          "type": "string"
        },
        {
          "indexed": false,
          "internalType": "string",
          "name": "newApiKey",
          "type": "string"
        }
      ],
      "name": "ApiKeyUpdated",
      "type": "event"
    },
    {
      "anonymous": false,
      "inputs": [
        {
          "indexed": true,
          "internalType": "bytes32",
          "name": "id",
          "type": "bytes32"
        }
      ],
      "name": "ChainlinkCancelled",
      "type": "event"
    },
    {
      "anonymous": false,
      "inputs": [
        {
          "indexed": true,
          "internalType": "bytes32",
          "name": "id",
          "type": "bytes32"
        }
      ],
      "name": "ChainlinkFulfilled",
      "type": "event"
    },
    {
      "anonymous": false,
      "inputs": [
        {
          "indexed": true,
          "internalType": "bytes32",
          "name": "id",
          "type": "bytes32"
        }
      ],
      "name": "ChainlinkRequested",
      "type": "event"
    },
    {
      "anonymous": false,
      "inputs": [
        {
          "indexed": false,
          "internalType": "address",
          "name": "oldAddress",
          "type": "address"
        },
        {
          "indexed": false,
          "internalType": "address",
          "name": "newAddress",
          "type": "address"
        }
      ],
      "name": "HubAddressUpdated",
      "type": "event"
    },
    {
      "anonymous": false,
      "inputs": [
        {
          "indexed": false,
          "internalType": "bytes32",
          "name": "oldId",
          "type": "bytes32"
        },
        {
          "indexed": false,
          "internalType": "bytes32",
          "name": "newId",
          "type": "bytes32"
        }
      ],
      "name": "JobIDUpdated",
      "type": "event"
    },
    {
      "anonymous": false,
      "inputs": [
        {
          "indexed": false,
          "internalType": "address",
          "name": "oldAddress",
          "type": "address"
        },
        {
          "indexed": false,
          "internalType": "address",
          "name": "newAddress",
          "type": "address"
        }
      ],
      "name": "KeepersRegistryAddressUpdated",
      "type": "event"
    },
    {
      "anonymous": false,
      "inputs": [
        {
          "indexed": false,
          "internalType": "address",
          "name": "oldAddress",
          "type": "address"
        },
        {
          "indexed": false,
          "internalType": "address",
          "name": "newAddress",
          "type": "address"
        }
      ],
      "name": "OracleAddressUpdated",
      "type": "event"
    },
    {
      "anonymous": false,
      "inputs": [],
      "name": "Paused",
      "type": "event"
    },
    {
      "anonymous": false,
      "inputs": [
        {
          "indexed": true,
          "internalType": "bytes32",
          "name": "requestId",
          "type": "bytes32"
        },
        {
          "indexed": false,
          "internalType": "uint256",
          "name": "price",
          "type": "uint256"
        }
      ],
      "name": "PriceUpdated",
      "type": "event"
    },
    {
      "anonymous": false,
      "inputs": [],
      "name": "Unpaused",
      "type": "event"
    },
    {
      "anonymous": false,
      "inputs": [
        {
          "indexed": true,
          "internalType": "address",
          "name": "addr",
          "type": "address"
        },
        {
          "indexed": false,
          "internalType": "uint256",
          "name": "amount",
          "type": "uint256"
        }
      ],
      "name": "Withdraw",
      "type": "event"
    },
    {
      "inputs": [
        {
          "internalType": "string",
          "name": "_asset",
          "type": "string"
        }
      ],
      "name": "addAsset",
      "outputs": [],
      "stateMutability": "nonpayable",
      "type": "function"
    },
    {
      "inputs": [],
      "name": "aggregatorAddress",
      "outputs": [
        {
          "internalType": "address",
          "name": "",
          "type": "address"
        }
      ],
      "stateMutability": "view",
      "type": "function"
    },
    {
      "inputs": [
        {
          "internalType": "uint256",
          "name": "",
          "type": "uint256"
        }
      ],
      "name": "assetList",
      "outputs": [
        {
          "internalType": "string",
          "name": "",
          "type": "string"
        }
      ],
      "stateMutability": "view",
      "type": "function"
    },
    {
      "inputs": [
        {
          "internalType": "string",
          "name": "",
          "type": "string"
        }
      ],
      "name": "assetToPrice",
      "outputs": [
        {
          "internalType": "uint256",
          "name": "price",
          "type": "uint256"
        },
        {
          "internalType": "bool",
          "name": "exists",
          "type": "bool"
        }
      ],
      "stateMutability": "view",
      "type": "function"
    },
    {
      "inputs": [
        {
          "internalType": "bytes",
          "name": "",
          "type": "bytes"
        }
      ],
      "name": "checkUpkeep",
      "outputs": [
        {
          "internalType": "bool",
          "name": "",
          "type": "bool"
        },
        {
          "internalType": "bytes",
          "name": "",
          "type": "bytes"
        }
      ],
      "stateMutability": "view",
      "type": "function"
    },
    {
      "inputs": [
        {
          "internalType": "bytes32",
          "name": "_requestId",
          "type": "bytes32"
        },
        {
          "internalType": "uint256",
          "name": "_price",
          "type": "uint256"
        }
      ],
      "name": "fulfill",
      "outputs": [],
      "stateMutability": "nonpayable",
      "type": "function"
    },
    {
      "inputs": [],
      "name": "getAssetList",
      "outputs": [
        {
          "internalType": "string[]",
          "name": "",
          "type": "string[]"
        }
      ],
      "stateMutability": "view",
      "type": "function"
    },
    {
      "inputs": [
        {
          "internalType": "string",
          "name": "_asset",
          "type": "string"
        }
      ],
      "name": "getAssetPrice",
      "outputs": [
        {
          "internalType": "uint256",
          "name": "",
          "type": "uint256"
        }
      ],
      "stateMutability": "view",
      "type": "function"
    },
    {
      "inputs": [],
      "name": "getUSDCPrice",
      "outputs": [
        {
          "internalType": "int256",
          "name": "",
          "type": "int256"
        }
      ],
      "stateMutability": "view",
      "type": "function"
    },
    {
      "inputs": [],
      "name": "hubAddress",
      "outputs": [
        {
          "internalType": "address",
          "name": "",
          "type": "address"
        }
      ],
      "stateMutability": "view",
      "type": "function"
    },
    {
      "inputs": [],
      "name": "interval",
      "outputs": [
        {
          "internalType": "uint256",
          "name": "",
          "type": "uint256"
        }
      ],
      "stateMutability": "view",
      "type": "function"
    },
    {
      "inputs": [],
      "name": "keepersRegistryAddress",
      "outputs": [
        {
          "internalType": "address",
          "name": "",
          "type": "address"
        }
      ],
      "stateMutability": "view",
      "type": "function"
    },
    {
      "inputs": [],
      "name": "lastTimeStamp",
      "outputs": [
        {
          "internalType": "uint256",
          "name": "",
          "type": "uint256"
        }
      ],
      "stateMutability": "view",
      "type": "function"
    },
    {
      "inputs": [],
      "name": "owner",
      "outputs": [
        {
          "internalType": "address",
          "name": "",
          "type": "address"
        }
      ],
      "stateMutability": "view",
      "type": "function"
    },
    {
      "inputs": [],
      "name": "pause",
      "outputs": [],
      "stateMutability": "nonpayable",
      "type": "function"
    },
    {
      "inputs": [],
      "name": "paused",
      "outputs": [
        {
          "internalType": "bool",
          "name": "",
          "type": "bool"
        }
      ],
      "stateMutability": "view",
      "type": "function"
    },
    {
      "inputs": [
        {
          "internalType": "bytes",
          "name": "",
          "type": "bytes"
        }
      ],
      "name": "performUpkeep",
      "outputs": [],
      "stateMutability": "nonpayable",
      "type": "function"
    },
    {
      "inputs": [
        {
          "internalType": "address",
          "name": "_aggregatorAddress",
          "type": "address"
        }
      ],
      "name": "setAggregatorAddress",
      "outputs": [],
      "stateMutability": "nonpayable",
      "type": "function"
    },
    {
      "inputs": [
        {
          "internalType": "string",
          "name": "_apiKey",
          "type": "string"
        }
      ],
      "name": "setApiKey",
      "outputs": [],
      "stateMutability": "nonpayable",
      "type": "function"
    },
    {
      "inputs": [
        {
          "internalType": "string",
          "name": "_asset",
          "type": "string"
        },
        {
          "internalType": "uint256",
          "name": "_price",
          "type": "uint256"
        }
      ],
      "name": "setAssetPrice",
      "outputs": [],
      "stateMutability": "nonpayable",
      "type": "function"
    },
    {
      "inputs": [
        {
          "internalType": "address",
          "name": "_hubAddress",
          "type": "address"
        }
      ],
      "name": "setHubAddress",
      "outputs": [],
      "stateMutability": "nonpayable",
      "type": "function"
    },
    {
      "inputs": [
        {
          "internalType": "bytes32",
          "name": "_jobId",
          "type": "bytes32"
        }
      ],
      "name": "setJobId",
      "outputs": [],
      "stateMutability": "nonpayable",
      "type": "function"
    },
    {
      "inputs": [
        {
          "internalType": "address",
          "name": "_keepersRegistryAddress",
          "type": "address"
        }
      ],
      "name": "setKeepersRegistryAddress",
      "outputs": [],
      "stateMutability": "nonpayable",
      "type": "function"
    },
    {
      "inputs": [
        {
          "internalType": "address",
          "name": "_oracleAddress",
          "type": "address"
        }
      ],
      "name": "setOracleAddress",
      "outputs": [],
      "stateMutability": "nonpayable",
      "type": "function"
    },
    {
      "inputs": [],
      "name": "unpause",
      "outputs": [],
      "stateMutability": "nonpayable",
      "type": "function"
    },
    {
      "inputs": [
        {
          "internalType": "string",
          "name": "_asset",
          "type": "string"
        }
      ],
      "name": "updateAssetPrice",
      "outputs": [
        {
          "internalType": "bytes32",
          "name": "requestId",
          "type": "bytes32"
        }
      ],
      "stateMutability": "nonpayable",
      "type": "function"
    },
    {
      "inputs": [],
      "name": "updateUSDCPrice",
      "outputs": [],
      "stateMutability": "nonpayable",
      "type": "function"
    },
    {
      "inputs": [],
      "name": "withdraw",
      "outputs": [],
      "stateMutability": "nonpayable",
      "type": "function"
    }
  ],
  "bytecode": "0x60a060405260016004553480156200001657600080fd5b506040516200567e3803806200567e83398181016040528101906200003c91906200062f565b84600073ffffffffffffffffffffffffffffffffffffffff168173ffffffffffffffffffffffffffffffffffffffff161415620000b0576040517f08c379a0000000000000000000000000000000000000000000000000000000008152600401620000a79062000786565b60405180910390fd5b84600073ffffffffffffffffffffffffffffffffffffffff168173ffffffffffffffffffffffffffffffffffffffff16141562000124576040517f08c379a00000000000000000000000000000000000000000000000000000000081526004016200011b9062000786565b60405180910390fd5b8360008151116200016c576040517f08c379a00000000000000000000000000000000000000000000000000000000081526004016200016390620007ca565b60405180910390fd5b856000602060ff1611620001b7576040517f08c379a0000000000000000000000000000000000000000000000000000000008152600401620001ae90620007ec565b60405180910390fd5b60008511620001fd576040517f08c379a0000000000000000000000000000000000000000000000000000000008152600401620001f490620007a8565b60405180910390fd5b33600f60006101000a81548173ffffffffffffffffffffffffffffffffffffffff021916908373ffffffffffffffffffffffffffffffffffffffff160217905550600073ffffffffffffffffffffffffffffffffffffffff168a73ffffffffffffffffffffffffffffffffffffffff1614156200028a57620002846200039e60201b60201c565b6200029c565b6200029b8a6200044660201b60201c565b5b88601160006101000a81548173ffffffffffffffffffffffffffffffffffffffff021916908373ffffffffffffffffffffffffffffffffffffffff16021790555088600660006101000a81548173ffffffffffffffffffffffffffffffffffffffff021916908373ffffffffffffffffffffffffffffffffffffffff16021790555087600760006101000a81548173ffffffffffffffffffffffffffffffffffffffff021916908373ffffffffffffffffffffffffffffffffffffffff1602179055508660088190555085600990805190602001906200037e9291906200048a565b50846080818152505042600a819055505050505050505050505062000b75565b6200044473c89bd4e1632d3a43cb03aaad5262cbe4038bc57173ffffffffffffffffffffffffffffffffffffffff166338cc48316040518163ffffffff1660e01b815260040160206040518083038186803b158015620003fd57600080fd5b505afa15801562000412573d6000803e3d6000fd5b505050506040513d601f19601f82011682018060405250810190620004389190620005fd565b6200044660201b60201c565b565b80600260006101000a81548173ffffffffffffffffffffffffffffffffffffffff021916908373ffffffffffffffffffffffffffffffffffffffff16021790555050565b8280546200049890620008fc565b90600052602060002090601f016020900481019282620004bc576000855562000508565b82601f10620004d757805160ff191683800117855562000508565b8280016001018555821562000508579182015b8281111562000507578251825591602001919060010190620004ea565b5b5090506200051791906200051b565b5090565b5b80821115620005365760008160009055506001016200051c565b5090565b6000620005516200054b8462000837565b6200080e565b90508281526020810184848401111562000570576200056f620009cb565b5b6200057d848285620008c6565b509392505050565b600081519050620005968162000b27565b92915050565b600081519050620005ad8162000b41565b92915050565b600082601f830112620005cb57620005ca620009c6565b5b8151620005dd8482602086016200053a565b91505092915050565b600081519050620005f78162000b5b565b92915050565b600060208284031215620006165762000615620009d5565b5b6000620006268482850162000585565b91505092915050565b60008060008060008060c087890312156200064f576200064e620009d5565b5b60006200065f89828a0162000585565b96505060206200067289828a0162000585565b95505060406200068589828a0162000585565b94505060606200069889828a016200059c565b935050608087015167ffffffffffffffff811115620006bc57620006bb620009d0565b5b620006ca89828a01620005b3565b92505060a0620006dd89828a01620005e6565b9150509295509295509295565b6000620006f96024836200086d565b91506200070682620009eb565b604082019050919050565b600062000720602f836200086d565b91506200072d8262000a3a565b604082019050919050565b6000620007476024836200086d565b9150620007548262000a89565b604082019050919050565b60006200076e6023836200086d565b91506200077b8262000ad8565b604082019050919050565b60006020820190508181036000830152620007a181620006ea565b9050919050565b60006020820190508181036000830152620007c38162000711565b9050919050565b60006020820190508181036000830152620007e58162000738565b9050919050565b6000602082019050818103600083015262000807816200075f565b9050919050565b60006200081a6200082d565b905062000828828262000932565b919050565b6000604051905090565b600067ffffffffffffffff82111562000855576200085462000997565b5b6200086082620009da565b9050602081019050919050565b600082825260208201905092915050565b60006200088b826200089c565b9050919050565b6000819050919050565b600073ffffffffffffffffffffffffffffffffffffffff82169050919050565b6000819050919050565b60005b83811015620008e6578082015181840152602081019050620008c9565b83811115620008f6576000848401525b50505050565b600060028204905060018216806200091557607f821691505b602082108114156200092c576200092b62000968565b5b50919050565b6200093d82620009da565b810181811067ffffffffffffffff821117156200095f576200095e62000997565b5b80604052505050565b7f4e487b7100000000000000000000000000000000000000000000000000000000600052602260045260246000fd5b7f4e487b7100000000000000000000000000000000000000000000000000000000600052604160045260246000fd5b600080fd5b600080fd5b600080fd5b600080fd5b6000601f19601f8301169050919050565b7f546865206164647265737320706172616d657465722063616e6e6f742062652060008201527f6e756c6c00000000000000000000000000000000000000000000000000000000602082015250565b7f5468652075706461746520696e74657276616c2068617320746f20626520677260008201527f6561746572207468616e207a65726f0000000000000000000000000000000000602082015250565b7f54686520737472696e6720706172616d657465722063616e6e6f74206265206560008201527f6d70747900000000000000000000000000000000000000000000000000000000602082015250565b7f54686520627974657320706172616d657465722063616e6e6f7420626520656d60008201527f7074790000000000000000000000000000000000000000000000000000000000602082015250565b62000b32816200087e565b811462000b3e57600080fd5b50565b62000b4c8162000892565b811462000b5857600080fd5b50565b62000b6681620008bc565b811462000b7257600080fd5b50565b608051614adf62000b9f60003960008181610edc0152818161153101526116d90152614adf6000f3fe608060405234801561001057600080fd5b50600436106101c45760003560e01c8063508954f8116100f9578063a7c6b52e11610097578063d6911ac511610071578063d6911ac514610483578063db0370411461049f578063f69b1b29146104cf578063f9c33bab146104ed576101c4565b8063a7c6b52e1461042f578063b78107ca1461044b578063c7eb452214610467576101c4565b80638456cb59116100d35780638456cb59146103b95780638da5cb5b146103c3578063947a36fb146103e1578063a0b4b301146103ff576101c4565b8063508954f81461034e5780635c975abb1461036a5780636e04ff0d14610388576101c4565b80633f4ba83a11610166578063476459f511610140578063476459f5146102da57806347b32448146102f85780634ad517bc146103145780634c69c00f14610332576101c4565b80633f4ba83a146102985780634357855e146102a25780634585e33b146102be576101c4565b80633765c0b8116101a25780633765c0b814610234578063380bbe53146102525780633ccfd60b146102705780633f3b3b271461027a576101c4565b806318f0d35c146101c9578063295eb79c146101d35780632aedd0eb14610204575b600080fd5b6101d1610509565b005b6101ed60048036038101906101e89190613293565b6106a3565b6040516101fb929190613e19565b60405180910390f35b61021e60048036038101906102199190613293565b6106ea565b60405161022b9190613dfe565b60405180910390f35b61023c6107c9565b6040516102499190613af9565b60405180910390f35b61025a6108a2565b60405161026791906139c9565b60405180910390f35b6102786108c8565b005b610282610abb565b60405161028f9190613dfe565b60405180910390f35b6102a0610ac1565b005b6102bc60048036038101906102b79190613206565b610be9565b005b6102d860048036038101906102d39190613246565b610df2565b005b6102e2610ff7565b6040516102ef91906139c9565b60405180910390f35b610312600480360381019061030d919061317f565b61101d565b005b61031c6111ff565b6040516103299190613baa565b60405180910390f35b61034c6004803603810190610347919061317f565b611209565b005b610368600480360381019061036391906131d9565b6113aa565b005b6103726114c8565b60405161037f9190613b1b565b60405180910390f35b6103a2600480360381019061039d9190613246565b6114db565b6040516103b0929190613b36565b60405180910390f35b6103c1611588565b005b6103cb6116b1565b6040516103d891906139c9565b60405180910390f35b6103e96116d7565b6040516103f69190613dfe565b60405180910390f35b61041960048036038101906104149190613338565b6116fb565b6040516104269190613bc5565b60405180910390f35b61044960048036038101906104449190613293565b6117a7565b005b610465600480360381019061046091906132dc565b6119bd565b005b610481600480360381019061047c919061317f565b611b83565b005b61049d60048036038101906104989190613293565b611d24565b005b6104b960048036038101906104b49190613293565b611e4e565b6040516104c69190613b66565b60405180910390f35b6104d761226e565b6040516104e491906139c9565b60405180910390f35b6105076004803603810190610502919061317f565b612294565b005b601260009054906101000a900473ffffffffffffffffffffffffffffffffffffffff1673ffffffffffffffffffffffffffffffffffffffff163373ffffffffffffffffffffffffffffffffffffffff1614806105b25750600f60009054906101000a900473ffffffffffffffffffffffffffffffffffffffff1673ffffffffffffffffffffffffffffffffffffffff163373ffffffffffffffffffffffffffffffffffffffff16145b6105f1576040517f08c379a00000000000000000000000000000000000000000000000000000000081526004016105e890613d9e565b60405180910390fd5b6000600660009054906101000a900473ffffffffffffffffffffffffffffffffffffffff1673ffffffffffffffffffffffffffffffffffffffff1663feaf968c6040518163ffffffff1660e01b815260040160a06040518083038186803b15801561065b57600080fd5b505afa15801561066f573d6000803e3d6000fd5b505050506040513d601f19601f820116820180604052508101906106939190613392565b50505091505080600b8190555050565b600d818051602081018201805184825260208301602085012081835280955050505050506000915090508060000154908060010160009054906101000a900460ff16905082565b6000816000815111610731576040517f08c379a000000000000000000000000000000000000000000000000000000000815260040161072890613d1e565b60405180910390fd5b600d836040516107419190613978565b908152602001604051809103902060010160009054906101000a900460ff1661079f576040517f08c379a000000000000000000000000000000000000000000000000000000000815260040161079690613d5e565b60405180910390fd5b600d836040516107af9190613978565b908152602001604051809103902060000154915050919050565b6060600e805480602002602001604051908101604052809291908181526020016000905b8282101561089957838290600052602060002001805461080c90614339565b80601f016020809104026020016040519081016040528092919081815260200182805461083890614339565b80156108855780601f1061085a57610100808354040283529160200191610885565b820191906000526020600020905b81548152906001019060200180831161086857829003601f168201915b5050505050815260200190600101906107ed565b50505050905090565b601160009054906101000a900473ffffffffffffffffffffffffffffffffffffffff1681565b600f60009054906101000a900473ffffffffffffffffffffffffffffffffffffffff1673ffffffffffffffffffffffffffffffffffffffff163373ffffffffffffffffffffffffffffffffffffffff1614610958576040517f08c379a000000000000000000000000000000000000000000000000000000000815260040161094f90613d3e565b60405180910390fd5b6000610962612435565b90508073ffffffffffffffffffffffffffffffffffffffff1663a9059cbb338373ffffffffffffffffffffffffffffffffffffffff166370a08231306040518263ffffffff1660e01b81526004016109ba91906139c9565b60206040518083038186803b1580156109d257600080fd5b505afa1580156109e6573d6000803e3d6000fd5b505050506040513d601f19601f82011682018060405250810190610a0a9190613365565b6040518363ffffffff1660e01b8152600401610a27929190613a0d565b602060405180830381600087803b158015610a4157600080fd5b505af1158015610a55573d6000803e3d6000fd5b505050506040513d601f19601f82011682018060405250810190610a7991906131ac565b610ab8576040517f08c379a0000000000000000000000000000000000000000000000000000000008152600401610aaf90613cfe565b60405180910390fd5b50565b600a5481565b600f60009054906101000a900473ffffffffffffffffffffffffffffffffffffffff1673ffffffffffffffffffffffffffffffffffffffff163373ffffffffffffffffffffffffffffffffffffffff1614610b51576040517f08c379a0000000000000000000000000000000000000000000000000000000008152600401610b4890613d3e565b60405180910390fd5b601260149054906101000a900460ff16610ba0576040517f08c379a0000000000000000000000000000000000000000000000000000000008152600401610b9790613dbe565b60405180910390fd5b6000601260146101000a81548160ff0219169083151502179055507fa45f47fdea8a1efdd9029a5691c7f759c32b7c698632b563573e155625d1693360405160405180910390a1565b816005600082815260200190815260200160002060009054906101000a900473ffffffffffffffffffffffffffffffffffffffff1673ffffffffffffffffffffffffffffffffffffffff163373ffffffffffffffffffffffffffffffffffffffff1614610c8b576040517f08c379a0000000000000000000000000000000000000000000000000000000008152600401610c8290613d7e565b60405180910390fd5b6005600082815260200190815260200160002060006101000a81549073ffffffffffffffffffffffffffffffffffffffff0219169055807f7cc135e0cebb02c3480ae5d74d377283180a2601f8f644edf7987b009316c63a60405160405180910390a26000600c60008581526020019081526020016000208054610d0e90614339565b80601f0160208091040260200160405190810160405280929190818152602001828054610d3a90614339565b8015610d875780601f10610d5c57610100808354040283529160200191610d87565b820191906000526020600020905b815481529060010190602001808311610d6a57829003601f168201915b5050505050905082600d82604051610d9f9190613978565b908152602001604051809103902060000181905550837f46eec4e0eeeef5830de3472bb39db7e52b1c809286dc87c4b85b20e003cc70c384604051610de49190613dfe565b60405180910390a250505050565b601260009054906101000a900473ffffffffffffffffffffffffffffffffffffffff1673ffffffffffffffffffffffffffffffffffffffff163373ffffffffffffffffffffffffffffffffffffffff161480610e9b5750600f60009054906101000a900473ffffffffffffffffffffffffffffffffffffffff1673ffffffffffffffffffffffffffffffffffffffff163373ffffffffffffffffffffffffffffffffffffffff16145b610eda576040517f08c379a0000000000000000000000000000000000000000000000000000000008152600401610ed190613d9e565b60405180910390fd5b7f0000000000000000000000000000000000000000000000000000000000000000600a5442610f0991906141ef565b1115610ff35742600a81905550610f1e610509565b60005b600e80549050811015610ff157610fdd600e8281548110610f4557610f446144d1565b5b906000526020600020018054610f5a90614339565b80601f0160208091040260200160405190810160405280929190818152602001828054610f8690614339565b8015610fd35780601f10610fa857610100808354040283529160200191610fd3565b820191906000526020600020905b815481529060010190602001808311610fb657829003601f168201915b5050505050611e4e565b508080610fe99061439c565b915050610f21565b505b5050565b601260009054906101000a900473ffffffffffffffffffffffffffffffffffffffff1681565b600f60009054906101000a900473ffffffffffffffffffffffffffffffffffffffff1673ffffffffffffffffffffffffffffffffffffffff163373ffffffffffffffffffffffffffffffffffffffff16146110ad576040517f08c379a00000000000000000000000000000000000000000000000000000000081526004016110a490613d3e565b60405180910390fd5b80600073ffffffffffffffffffffffffffffffffffffffff168173ffffffffffffffffffffffffffffffffffffffff16141561111e576040517f08c379a000000000000000000000000000000000000000000000000000000000815260040161111590613c9e565b60405180910390fd5b7f54e7bf22fc873448922e314922bf85cfc8dd08cbd1c991474f6ffb4ec50254b5601160009054906101000a900473ffffffffffffffffffffffffffffffffffffffff16836040516111719291906139e4565b60405180910390a181601160006101000a81548173ffffffffffffffffffffffffffffffffffffffff021916908373ffffffffffffffffffffffffffffffffffffffff16021790555081600660006101000a81548173ffffffffffffffffffffffffffffffffffffffff021916908373ffffffffffffffffffffffffffffffffffffffff1602179055505050565b6000600b54905090565b600f60009054906101000a900473ffffffffffffffffffffffffffffffffffffffff1673ffffffffffffffffffffffffffffffffffffffff163373ffffffffffffffffffffffffffffffffffffffff1614611299576040517f08c379a000000000000000000000000000000000000000000000000000000000815260040161129090613d3e565b60405180910390fd5b80600073ffffffffffffffffffffffffffffffffffffffff168173ffffffffffffffffffffffffffffffffffffffff16141561130a576040517f08c379a000000000000000000000000000000000000000000000000000000000815260040161130190613c9e565b60405180910390fd5b7fd3afd1676752459d3aa8b6f73633fac8efd724610da9c4cd8d8e4fa1631841fb600760009054906101000a900473ffffffffffffffffffffffffffffffffffffffff168360405161135d9291906139e4565b60405180910390a181600760006101000a81548173ffffffffffffffffffffffffffffffffffffffff021916908373ffffffffffffffffffffffffffffffffffffffff1602179055505050565b600f60009054906101000a900473ffffffffffffffffffffffffffffffffffffffff1673ffffffffffffffffffffffffffffffffffffffff163373ffffffffffffffffffffffffffffffffffffffff161461143a576040517f08c379a000000000000000000000000000000000000000000000000000000000815260040161143190613d3e565b60405180910390fd5b806000602060ff1611611482576040517f08c379a000000000000000000000000000000000000000000000000000000000815260040161147990613dde565b60405180910390fd5b7ffb8d4ac17fdb5fbb3b325eb277fceadd1a368bddea32ab4dcc670ddbf49f7e05600854836040516114b5929190613b81565b60405180910390a1816008819055505050565b601260149054906101000a900460ff1681565b60006060601260149054906101000a900460ff161561152f576040517f08c379a000000000000000000000000000000000000000000000000000000000815260040161152690613c1e565b60405180910390fd5b7f0000000000000000000000000000000000000000000000000000000000000000600a544261155e91906141ef565b1160405160200161156e90613c3e565b604051602081830303815290604052915091509250929050565b600f60009054906101000a900473ffffffffffffffffffffffffffffffffffffffff1673ffffffffffffffffffffffffffffffffffffffff163373ffffffffffffffffffffffffffffffffffffffff1614611618576040517f08c379a000000000000000000000000000000000000000000000000000000000815260040161160f90613d3e565b60405180910390fd5b601260149054906101000a900460ff1615611668576040517f08c379a000000000000000000000000000000000000000000000000000000000815260040161165f90613cbe565b60405180910390fd5b6001601260146101000a81548160ff0219169083151502179055507f9e87fac88ff661f02d44f95383c817fece4bce600a3dab7a54406878b965e75260405160405180910390a1565b600f60009054906101000a900473ffffffffffffffffffffffffffffffffffffffff1681565b7f000000000000000000000000000000000000000000000000000000000000000081565b600e818154811061170b57600080fd5b90600052602060002001600091509050805461172690614339565b80601f016020809104026020016040519081016040528092919081815260200182805461175290614339565b801561179f5780601f106117745761010080835404028352916020019161179f565b820191906000526020600020905b81548152906001019060200180831161178257829003601f168201915b505050505081565b8060008151116117ec576040517f08c379a00000000000000000000000000000000000000000000000000000000081526004016117e390613d1e565b60405180910390fd5b601060009054906101000a900473ffffffffffffffffffffffffffffffffffffffff1673ffffffffffffffffffffffffffffffffffffffff163373ffffffffffffffffffffffffffffffffffffffff1614806118955750600f60009054906101000a900473ffffffffffffffffffffffffffffffffffffffff1673ffffffffffffffffffffffffffffffffffffffff163373ffffffffffffffffffffffffffffffffffffffff16145b6118d4576040517f08c379a00000000000000000000000000000000000000000000000000000000081526004016118cb90613c7e565b60405180910390fd5b600d826040516118e49190613978565b908152602001604051809103902060010160009054906101000a900460ff1615611943576040517f08c379a000000000000000000000000000000000000000000000000000000000815260040161193a90613cde565b60405180910390fd5b600e8290806001815401808255809150506001900390600052602060002001600090919091909150908051906020019061197e929190612efc565b506001600d836040516119919190613978565b908152602001604051809103902060010160006101000a81548160ff0219169083151502179055505050565b600f60009054906101000a900473ffffffffffffffffffffffffffffffffffffffff1673ffffffffffffffffffffffffffffffffffffffff163373ffffffffffffffffffffffffffffffffffffffff1614611a4d576040517f08c379a0000000000000000000000000000000000000000000000000000000008152600401611a4490613d3e565b60405180910390fd5b816000815111611a92576040517f08c379a0000000000000000000000000000000000000000000000000000000008152600401611a8990613d1e565b60405180910390fd5b600d83604051611aa29190613978565b908152602001604051809103902060010160009054906101000a900460ff16611b00576040517f08c379a0000000000000000000000000000000000000000000000000000000008152600401611af790613d5e565b60405180910390fd5b81600d84604051611b119190613978565b9081526020016040518091039020600001819055507f54455354000000000000000000000000000000000000000000000000000000007f46eec4e0eeeef5830de3472bb39db7e52b1c809286dc87c4b85b20e003cc70c383604051611b769190613dfe565b60405180910390a2505050565b600f60009054906101000a900473ffffffffffffffffffffffffffffffffffffffff1673ffffffffffffffffffffffffffffffffffffffff163373ffffffffffffffffffffffffffffffffffffffff1614611c13576040517f08c379a0000000000000000000000000000000000000000000000000000000008152600401611c0a90613d3e565b60405180910390fd5b80600073ffffffffffffffffffffffffffffffffffffffff168173ffffffffffffffffffffffffffffffffffffffff161415611c84576040517f08c379a0000000000000000000000000000000000000000000000000000000008152600401611c7b90613c9e565b60405180910390fd5b7fb901fe574578be0266f546b6a7402d2d41ff562025f50bdc27a2204347dbc148601060009054906101000a900473ffffffffffffffffffffffffffffffffffffffff1683604051611cd79291906139e4565b60405180910390a181601060006101000a81548173ffffffffffffffffffffffffffffffffffffffff021916908373ffffffffffffffffffffffffffffffffffffffff1602179055505050565b600f60009054906101000a900473ffffffffffffffffffffffffffffffffffffffff1673ffffffffffffffffffffffffffffffffffffffff163373ffffffffffffffffffffffffffffffffffffffff1614611db4576040517f08c379a0000000000000000000000000000000000000000000000000000000008152600401611dab90613d3e565b60405180910390fd5b806000815111611df9576040517f08c379a0000000000000000000000000000000000000000000000000000000008152600401611df090613d1e565b60405180910390fd5b7fa52e46c52de84b118fe24eb8e6d29091c4bb48546aa747cdfea4bfd192e4a37c600983604051611e2b929190613be7565b60405180910390a18160099080519060200190611e49929190612efc565b505050565b6000601260009054906101000a900473ffffffffffffffffffffffffffffffffffffffff1673ffffffffffffffffffffffffffffffffffffffff163373ffffffffffffffffffffffffffffffffffffffff161480611ef95750600f60009054906101000a900473ffffffffffffffffffffffffffffffffffffffff1673ffffffffffffffffffffffffffffffffffffffff163373ffffffffffffffffffffffffffffffffffffffff16145b611f38576040517f08c379a0000000000000000000000000000000000000000000000000000000008152600401611f2f90613d9e565b60405180910390fd5b816000815111611f7d576040517f08c379a0000000000000000000000000000000000000000000000000000000008152600401611f7490613d1e565b60405180910390fd5b600d83604051611f8d9190613978565b908152602001604051809103902060010160009054906101000a900460ff16611feb576040517f08c379a0000000000000000000000000000000000000000000000000000000008152600401611fe290613d5e565b60405180910390fd5b600061200160085430634357855e60e01b61245f565b9050600084600960405160200161201992919061398f565b60405160208183030381529060405290506120746040518060400160405280600381526020017f676574000000000000000000000000000000000000000000000000000000000081525082846124909092919063ffffffff16565b6000600267ffffffffffffffff81111561209157612090614500565b5b6040519080825280602002602001820160405280156120c457816020015b60608152602001906001900390816120af5790505b5090506040518060400160405280600c81526020017f476c6f62616c2051756f7465000000000000000000000000000000000000000081525081600081518110612111576121106144d1565b5b60200260200101819052506040518060400160405280600981526020017f30352e207072696365000000000000000000000000000000000000000000000081525081600181518110612166576121656144d1565b5b60200260200101819052506121bb6040518060400160405280600481526020017f706174680000000000000000000000000000000000000000000000000000000081525082856124c39092919063ffffffff16565b6122066040518060400160405280600581526020017f74696d657300000000000000000000000000000000000000000000000000000081525060648561254a9092919063ffffffff16565b61223b600760009054906101000a900473ffffffffffffffffffffffffffffffffffffffff168467016345785d8a000061257d565b945085600c60008781526020019081526020016000209080519060200190612264929190612efc565b5050505050919050565b601060009054906101000a900473ffffffffffffffffffffffffffffffffffffffff1681565b600f60009054906101000a900473ffffffffffffffffffffffffffffffffffffffff1673ffffffffffffffffffffffffffffffffffffffff163373ffffffffffffffffffffffffffffffffffffffff1614612324576040517f08c379a000000000000000000000000000000000000000000000000000000000815260040161231b90613d3e565b60405180910390fd5b80600073ffffffffffffffffffffffffffffffffffffffff168173ffffffffffffffffffffffffffffffffffffffff161415612395576040517f08c379a000000000000000000000000000000000000000000000000000000000815260040161238c90613c9e565b60405180910390fd5b7f7d70ef516cb0f39d5bbf094877c6f1111f26e66557ad533a4b5e919dcf0e2f1d601260009054906101000a900473ffffffffffffffffffffffffffffffffffffffff16836040516123e89291906139e4565b60405180910390a181601260006101000a81548173ffffffffffffffffffffffffffffffffffffffff021916908373ffffffffffffffffffffffffffffffffffffffff1602179055505050565b6000600260009054906101000a900473ffffffffffffffffffffffffffffffffffffffff16905090565b612467612f82565b61246f612f82565b61248685858584612649909392919063ffffffff16565b9150509392505050565b6124a78284608001516126f990919063ffffffff16565b6124be8184608001516126f990919063ffffffff16565b505050565b6124da8284608001516126f990919063ffffffff16565b6124e7836080015161271e565b60005b815181101561253757612524828281518110612509576125086144d1565b5b602002602001015185608001516126f990919063ffffffff16565b808061252f9061439c565b9150506124ea565b50612545836080015161272c565b505050565b6125618284608001516126f990919063ffffffff16565b61257881846080015161273a90919063ffffffff16565b505050565b60008060045490506001816125929190613f3a565b6004819055506000634042994660e01b60008087600001513089604001518760018c60800151600001516040516024016125d3989796959493929190613a36565b604051602081830303815290604052907bffffffffffffffffffffffffffffffffffffffffffffffffffffffff19166020820180517bffffffffffffffffffffffffffffffffffffffffffffffffffffffff8381831617835250505050905061263e868386846127e7565b925050509392505050565b612651612f82565b612661856080015161010061298b565b508385600001818152505082856020019073ffffffffffffffffffffffffffffffffffffffff16908173ffffffffffffffffffffffffffffffffffffffff16815250508185604001907bffffffffffffffffffffffffffffffffffffffffffffffffffffffff191690817bffffffffffffffffffffffffffffffffffffffffffffffffffffffff191681525050849050949350505050565b61270682600383516129f5565b6127198183612b7a90919063ffffffff16565b505050565b612729816004612b9c565b50565b612737816007612b9c565b50565b7fffffffffffffffffffffffffffffffffffffffffffffffff00000000000000008112156127715761276c8282612bbe565b6127e3565b67ffffffffffffffff8113156127905761278b8282612c35565b6127e2565b600081126127a9576127a4826000836129f5565b6127e1565b6127e0826001837fffffffffffffffffffffffffffffffffffffffffffffffffffffffffffffffff6127db919061415b565b6129f5565b5b5b5b5050565b600030846040516020016127fc92919061394c565b604051602081830303815290604052805190602001209050846005600083815260200190815260200160002060006101000a81548173ffffffffffffffffffffffffffffffffffffffff021916908373ffffffffffffffffffffffffffffffffffffffff160217905550807fb5e6e01e79f91267dc17b4e6314d5d4d03593d2ceee0fbb452b750bd70ea5af960405160405180910390a2600260009054906101000a900473ffffffffffffffffffffffffffffffffffffffff1673ffffffffffffffffffffffffffffffffffffffff16634000aea08685856040518463ffffffff1660e01b81526004016128f293929190613abb565b602060405180830381600087803b15801561290c57600080fd5b505af1158015612920573d6000803e3d6000fd5b505050506040513d601f19601f8201168201806040525081019061294491906131ac565b612983576040517f08c379a000000000000000000000000000000000000000000000000000000000815260040161297a90613c5e565b60405180910390fd5b949350505050565b612993612fef565b60006020836129a29190614413565b146129ce576020826129b49190614413565b60206129c091906141ef565b826129cb9190613f3a565b91505b81836020018181525050604051808452600081528281016020016040525082905092915050565b60178167ffffffffffffffff1611612a2c57612a268160058460ff16901b60ff161784612c8190919063ffffffff16565b50612b75565b60ff8167ffffffffffffffff1611612a8257612a5b601860058460ff16901b1784612c8190919063ffffffff16565b50612a7c8167ffffffffffffffff16600185612ca19092919063ffffffff16565b50612b74565b61ffff8167ffffffffffffffff1611612ad957612ab2601960058460ff16901b1784612c8190919063ffffffff16565b50612ad38167ffffffffffffffff16600285612ca19092919063ffffffff16565b50612b73565b63ffffffff8167ffffffffffffffff1611612b3257612b0b601a60058460ff16901b1784612c8190919063ffffffff16565b50612b2c8167ffffffffffffffff16600485612ca19092919063ffffffff16565b50612b72565b612b4f601b60058460ff16901b1784612c8190919063ffffffff16565b50612b708167ffffffffffffffff16600885612ca19092919063ffffffff16565b505b5b5b5b505050565b612b82612fef565b612b9483846000015151848551612cc3565b905092915050565b612bb9601f60058360ff16901b1783612c8190919063ffffffff16565b505050565b612bdc60036005600660ff16901b1783612c8190919063ffffffff16565b50612c3182827fffffffffffffffffffffffffffffffffffffffffffffffffffffffffffffffff612c0d919061415b565b604051602001612c1d9190613dfe565b604051602081830303815290604052612db2565b5050565b612c5360026005600660ff16901b1783612c8190919063ffffffff16565b50612c7d8282604051602001612c699190613dfe565b604051602081830303815290604052612db2565b5050565b612c89612fef565b612c998384600001515184612dd7565b905092915050565b612ca9612fef565b612cba848560000151518585612e2e565b90509392505050565b612ccb612fef565b8251821115612cd957600080fd5b84602001518285612cea9190613f3a565b1115612d1f57612d1e856002612d0f88602001518887612d0a9190613f3a565b612ebc565b612d199190614101565b612ed8565b5b600080865180518760208301019350808887011115612d3e5787860182525b60208701925050505b60208410612d855780518252602082612d609190613f3a565b9150602081612d6f9190613f3a565b9050602084612d7e91906141ef565b9350612d47565b60006001856020036101000a03905080198251168184511681811785525050508692505050949350505050565b612dbf82600283516129f5565b612dd28183612b7a90919063ffffffff16565b505050565b612ddf612fef565b83602001518310612e0557612e048460028660200151612dff9190614101565b612ed8565b5b8351805160208583010184815381861415612e21576001820183525b5050508390509392505050565b612e36612fef565b84602001518483612e479190613f3a565b1115612e6f57612e6e8560028685612e5f9190613f3a565b612e699190614101565b612ed8565b5b6000600183610100612e819190613fe3565b612e8b91906141ef565b90508551838682010185831982511617815281518588011115612eae5784870182525b505085915050949350505050565b600081831115612ece57829050612ed2565b8190505b92915050565b600082600001519050612eeb838361298b565b50612ef68382612b7a565b50505050565b828054612f0890614339565b90600052602060002090601f016020900481019282612f2a5760008555612f71565b82601f10612f4357805160ff1916838001178555612f71565b82800160010185558215612f71579182015b82811115612f70578251825591602001919060010190612f55565b5b509050612f7e9190613009565b5090565b6040518060a0016040528060008019168152602001600073ffffffffffffffffffffffffffffffffffffffff16815260200160007bffffffffffffffffffffffffffffffffffffffffffffffffffffffff1916815260200160008152602001612fe9612fef565b81525090565b604051806040016040528060608152602001600081525090565b5b8082111561302257600081600090555060010161300a565b5090565b600061303961303484613e67565b613e42565b9050828152602081018484840111156130555761305461453e565b5b6130608482856142f7565b509392505050565b60008135905061307781614a1f565b92915050565b60008151905061308c81614a36565b92915050565b6000813590506130a181614a4d565b92915050565b60008083601f8401126130bd576130bc614534565b5b8235905067ffffffffffffffff8111156130da576130d961452f565b5b6020830191508360018202830111156130f6576130f5614539565b5b9250929050565b60008151905061310c81614a64565b92915050565b600082601f83011261312757613126614534565b5b8135613137848260208601613026565b91505092915050565b60008135905061314f81614a7b565b92915050565b60008151905061316481614a7b565b92915050565b60008151905061317981614a92565b92915050565b60006020828403121561319557613194614548565b5b60006131a384828501613068565b91505092915050565b6000602082840312156131c2576131c1614548565b5b60006131d08482850161307d565b91505092915050565b6000602082840312156131ef576131ee614548565b5b60006131fd84828501613092565b91505092915050565b6000806040838503121561321d5761321c614548565b5b600061322b85828601613092565b925050602061323c85828601613140565b9150509250929050565b6000806020838503121561325d5761325c614548565b5b600083013567ffffffffffffffff81111561327b5761327a614543565b5b613287858286016130a7565b92509250509250929050565b6000602082840312156132a9576132a8614548565b5b600082013567ffffffffffffffff8111156132c7576132c6614543565b5b6132d384828501613112565b91505092915050565b600080604083850312156132f3576132f2614548565b5b600083013567ffffffffffffffff81111561331157613310614543565b5b61331d85828601613112565b925050602061332e85828601613140565b9150509250929050565b60006020828403121561334e5761334d614548565b5b600061335c84828501613140565b91505092915050565b60006020828403121561337b5761337a614548565b5b600061338984828501613155565b91505092915050565b600080600080600060a086880312156133ae576133ad614548565b5b60006133bc8882890161316a565b95505060206133cd888289016130fd565b94505060406133de88828901613155565b93505060606133ef88828901613155565b92505060806134008882890161316a565b9150509295509295909350565b60006134198383613531565b905092915050565b61342a81614223565b82525050565b600061343b82613ebd565b6134458185613eeb565b93508360208202850161345785613e98565b8060005b858110156134935784840389528151613474858261340d565b945061347f83613ede565b925060208a0199505060018101905061345b565b50829750879550505050505092915050565b6134ae81614235565b82525050565b6134bd81614241565b82525050565b6134cc8161424b565b82525050565b60006134dd82613ec8565b6134e78185613efc565b93506134f7818560208601614306565b6135008161454d565b840191505092915050565b61351c613517826142c1565b6143e5565b82525050565b61352b81614277565b82525050565b600061353c82613ed3565b6135468185613f0d565b9350613556818560208601614306565b61355f8161454d565b840191505092915050565b600061357582613ed3565b61357f8185613f1e565b935061358f818560208601614306565b6135988161454d565b840191505092915050565b60006135ae82613ed3565b6135b88185613f2f565b93506135c8818560208601614306565b80840191505092915050565b600081546135e181614339565b6135eb8186613f1e565b9450600182166000811461360657600181146136185761364b565b60ff198316865260208601935061364b565b61362185613ea8565b60005b8381101561364357815481890152600182019150602081019050613624565b808801955050505b50505092915050565b6000815461366181614339565b61366b8186613f2f565b945060018216600081146136865760018114613697576136ca565b60ff198316865281860193506136ca565b6136a085613ea8565b60005b838110156136c2578154818901526001820191506020810190506136a3565b838801955050505b50505092915050565b60006136e0604483613f1e565b91506136eb82614578565b606082019050919050565b6000613703600883613f2f565b915061370e826145ed565b600882019050919050565b6000613726600283613f1e565b915061373182614616565b602082019050919050565b6000613749602383613f1e565b91506137548261463f565b604082019050919050565b600061376c602f83613f1e565b91506137778261468e565b604082019050919050565b600061378f602483613f1e565b915061379a826146dd565b604082019050919050565b60006137b2601e83613f1e565b91506137bd8261472c565b602082019050919050565b60006137d5603883613f1e565b91506137e082614755565b604082019050919050565b60006137f8601283613f1e565b9150613803826147a4565b602082019050919050565b600061381b602483613f1e565b9150613826826147cd565b604082019050919050565b600061383e602383613f1e565b91506138498261481c565b604082019050919050565b6000613861603483613f1e565b915061386c8261486b565b604082019050919050565b6000613884602883613f1e565b915061388f826148ba565b604082019050919050565b60006138a7603c83613f1e565b91506138b282614909565b604082019050919050565b60006138ca601a83613f1e565b91506138d582614958565b602082019050919050565b60006138ed602383613f1e565b91506138f882614981565b604082019050919050565b6000613910603f83613f2f565b915061391b826149d0565b603f82019050919050565b61392f816142a1565b82525050565b613946613941826142a1565b614409565b82525050565b6000613958828561350b565b6014820191506139688284613935565b6020820191508190509392505050565b600061398482846135a3565b915081905092915050565b600061399a82613903565b91506139a682856135a3565b91506139b1826136f6565b91506139bd8284613654565b91508190509392505050565b60006020820190506139de6000830184613421565b92915050565b60006040820190506139f96000830185613421565b613a066020830184613421565b9392505050565b6000604082019050613a226000830185613421565b613a2f6020830184613926565b9392505050565b600061010082019050613a4c600083018b613421565b613a59602083018a613926565b613a6660408301896134b4565b613a736060830188613421565b613a8060808301876134c3565b613a8d60a0830186613926565b613a9a60c0830185613926565b81810360e0830152613aac81846134d2565b90509998505050505050505050565b6000606082019050613ad06000830186613421565b613add6020830185613926565b8181036040830152613aef81846134d2565b9050949350505050565b60006020820190508181036000830152613b138184613430565b905092915050565b6000602082019050613b3060008301846134a5565b92915050565b6000604082019050613b4b60008301856134a5565b8181036020830152613b5d81846134d2565b90509392505050565b6000602082019050613b7b60008301846134b4565b92915050565b6000604082019050613b9660008301856134b4565b613ba360208301846134b4565b9392505050565b6000602082019050613bbf6000830184613522565b92915050565b60006020820190508181036000830152613bdf818461356a565b905092915050565b60006040820190508181036000830152613c0181856135d4565b90508181036020830152613c15818461356a565b90509392505050565b60006020820190508181036000830152613c37816136d3565b9050919050565b60006020820190508181036000830152613c5781613719565b9050919050565b60006020820190508181036000830152613c778161373c565b9050919050565b60006020820190508181036000830152613c978161375f565b9050919050565b60006020820190508181036000830152613cb781613782565b9050919050565b60006020820190508181036000830152613cd7816137a5565b9050919050565b60006020820190508181036000830152613cf7816137c8565b9050919050565b60006020820190508181036000830152613d17816137eb565b9050919050565b60006020820190508181036000830152613d378161380e565b9050919050565b60006020820190508181036000830152613d5781613831565b9050919050565b60006020820190508181036000830152613d7781613854565b9050919050565b60006020820190508181036000830152613d9781613877565b9050919050565b60006020820190508181036000830152613db78161389a565b9050919050565b60006020820190508181036000830152613dd7816138bd565b9050919050565b60006020820190508181036000830152613df7816138e0565b9050919050565b6000602082019050613e136000830184613926565b92915050565b6000604082019050613e2e6000830185613926565b613e3b60208301846134a5565b9392505050565b6000613e4c613e5d565b9050613e58828261436b565b919050565b6000604051905090565b600067ffffffffffffffff821115613e8257613e81614500565b5b613e8b8261454d565b9050602081019050919050565b6000819050602082019050919050565b60008190508160005260206000209050919050565b600081519050919050565b600081519050919050565b600081519050919050565b6000602082019050919050565b600082825260208201905092915050565b600082825260208201905092915050565b600082825260208201905092915050565b600082825260208201905092915050565b600081905092915050565b6000613f45826142a1565b9150613f50836142a1565b9250827fffffffffffffffffffffffffffffffffffffffffffffffffffffffffffffffff03821115613f8557613f84614444565b5b828201905092915050565b6000808291508390505b6001851115613fda57808604811115613fb657613fb5614444565b5b6001851615613fc55780820291505b8081029050613fd38561456b565b9450613f9a565b94509492505050565b6000613fee826142a1565b9150613ff9836142a1565b92506140267fffffffffffffffffffffffffffffffffffffffffffffffffffffffffffffffff848461402e565b905092915050565b60008261403e57600190506140fa565b8161404c57600090506140fa565b8160018114614062576002811461406c5761409b565b60019150506140fa565b60ff84111561407e5761407d614444565b5b8360020a91508482111561409557614094614444565b5b506140fa565b5060208310610133831016604e8410600b84101617156140d05782820a9050838111156140cb576140ca614444565b5b6140fa565b6140dd8484846001613f90565b925090508184048111156140f4576140f3614444565b5b81810290505b9392505050565b600061410c826142a1565b9150614117836142a1565b9250817fffffffffffffffffffffffffffffffffffffffffffffffffffffffffffffffff04831182151516156141505761414f614444565b5b828202905092915050565b600061416682614277565b915061417183614277565b9250827f8000000000000000000000000000000000000000000000000000000000000000018212600084121516156141ac576141ab614444565b5b827f7fffffffffffffffffffffffffffffffffffffffffffffffffffffffffffffff0182136000841216156141e4576141e3614444565b5b828203905092915050565b60006141fa826142a1565b9150614205836142a1565b92508282101561421857614217614444565b5b828203905092915050565b600061422e82614281565b9050919050565b60008115159050919050565b6000819050919050565b60007fffffffff0000000000000000000000000000000000000000000000000000000082169050919050565b6000819050919050565b600073ffffffffffffffffffffffffffffffffffffffff82169050919050565b6000819050919050565b600069ffffffffffffffffffff82169050919050565b60006142cc826142d3565b9050919050565b60006142de826142e5565b9050919050565b60006142f082614281565b9050919050565b82818337600083830152505050565b60005b83811015614324578082015181840152602081019050614309565b83811115614333576000848401525b50505050565b6000600282049050600182168061435157607f821691505b60208210811415614365576143646144a2565b5b50919050565b6143748261454d565b810181811067ffffffffffffffff8211171561439357614392614500565b5b80604052505050565b60006143a7826142a1565b91507fffffffffffffffffffffffffffffffffffffffffffffffffffffffffffffffff8214156143da576143d9614444565b5b600182019050919050565b60006143f0826143f7565b9050919050565b60006144028261455e565b9050919050565b6000819050919050565b600061441e826142a1565b9150614429836142a1565b92508261443957614438614473565b5b828206905092915050565b7f4e487b7100000000000000000000000000000000000000000000000000000000600052601160045260246000fd5b7f4e487b7100000000000000000000000000000000000000000000000000000000600052601260045260246000fd5b7f4e487b7100000000000000000000000000000000000000000000000000000000600052602260045260246000fd5b7f4e487b7100000000000000000000000000000000000000000000000000000000600052603260045260246000fd5b7f4e487b7100000000000000000000000000000000000000000000000000000000600052604160045260246000fd5b600080fd5b600080fd5b600080fd5b600080fd5b600080fd5b600080fd5b6000601f19601f8301169050919050565b60008160601b9050919050565b60008160011c9050919050565b7f54686520636f6e74726163742069732070617573656420616e6420746865206160008201527f75746f6d6174696320757064617465206f66207072696365732069732073746f60208201527f7070656400000000000000000000000000000000000000000000000000000000604082015250565b7f266170696b65793d000000000000000000000000000000000000000000000000600082015250565b7f3078000000000000000000000000000000000000000000000000000000000000600082015250565b7f756e61626c6520746f207472616e73666572416e6443616c6c20746f206f726160008201527f636c650000000000000000000000000000000000000000000000000000000000602082015250565b7f4f6e6c79207468652068756220616e6420746865206f776e65722063616e206360008201527f616c6c2074686973206d6574686f640000000000000000000000000000000000602082015250565b7f546865206164647265737320706172616d657465722063616e6e6f742062652060008201527f6e756c6c00000000000000000000000000000000000000000000000000000000602082015250565b7f54686520636f6e747261637420697320616c7265616479207061757365640000600082015250565b7f546865206173736574206d757374206e6f7420616c726561647920626520726560008201527f676973746572656420696e2074686520636f6e74726163740000000000000000602082015250565b7f556e61626c6520746f207472616e736665720000000000000000000000000000600082015250565b7f54686520737472696e6720706172616d657465722063616e6e6f74206265206560008201527f6d70747900000000000000000000000000000000000000000000000000000000602082015250565b7f4f6e6c7920746865206f776e65722063616e2063616c6c2074686973206d657460008201527f686f640000000000000000000000000000000000000000000000000000000000602082015250565b7f546865206173736574206d75737420616c72656164792062652072656769737460008201527f6572656420696e2074686520636f6e7472616374000000000000000000000000602082015250565b7f536f75726365206d75737420626520746865206f7261636c65206f662074686560008201527f2072657175657374000000000000000000000000000000000000000000000000602082015250565b7f4f6e6c7920746865206b65657065727320726567697374727920616e6420746860008201527f65206f776e65722063616e2063616c6c2074686973206d6574686f6400000000602082015250565b7f54686520636f6e7472616374206973206e6f7420706175736564000000000000600082015250565b7f54686520627974657320706172616d657465722063616e6e6f7420626520656d60008201527f7074790000000000000000000000000000000000000000000000000000000000602082015250565b7f68747470733a2f2f7777772e616c70686176616e746167652e636f2f7175657260008201527f793f66756e6374696f6e3d474c4f42414c5f51554f54452673796d626f6c3d00602082015250565b614a2881614223565b8114614a3357600080fd5b50565b614a3f81614235565b8114614a4a57600080fd5b50565b614a5681614241565b8114614a6157600080fd5b50565b614a6d81614277565b8114614a7857600080fd5b50565b614a84816142a1565b8114614a8f57600080fd5b50565b614a9b816142ab565b8114614aa657600080fd5b5056fea26469706673582212206a3fd19c49c15c750c5fde3646e273e332165fe523f7bae7c3958653b941b60c64736f6c63430008070033",
  "linkReferences": {},
  "deployedLinkReferences": {}
}