{
  "_format": "hh-sol-artifact-1",
  "contractName": "PriceTrackerV1",
  "sourceName": "contracts/PriceTrackerV1.sol",
  "abi": [
    {
      "inputs": [
        {
          "internalType": "address",
          "name": "_linkAddress",
          "type": "address"
        },
        {
          "internalType": "address",
          "name": "_aggregatorAddress",
          "type": "address"
        },
        {
          "internalType": "address",
          "name": "_oracleAddress",
          "type": "address"
        },
        {
          "internalType": "bytes32",
          "name": "_jobId",
          "type": "bytes32"
        },
        {
          "internalType": "string",
          "name": "_apiKey",
          "type": "string"
        },
        {
          "internalType": "uint256",
          "name": "_updateInterval",
          "type": "uint256"
        }
      ],
      "stateMutability": "nonpayable",
      "type": "constructor"
    },
    {
      "anonymous": false,
      "inputs": [
        {
          "indexed": false,
          "internalType": "address",
          "name": "oldAddress",
          "type": "address"
        },
        {
          "indexed": false,
          "internalType": "address",
          "name": "newAddress",
          "type": "address"
        }
      ],
      "name": "AggregatorAddressUpdated",
      "type": "event"
    },
    {
      "anonymous": false,
      "inputs": [
        {
          "indexed": false,
          "internalType": "string",
          "name": "oldApiKey",
          "type": "string"
        },
        {
          "indexed": false,
          "internalType": "string",
          "name": "newApiKey",
          "type": "string"
        }
      ],
      "name": "ApiKeyUpdated",
      "type": "event"
    },
    {
      "anonymous": false,
      "inputs": [
        {
          "indexed": true,
          "internalType": "bytes32",
          "name": "requestId",
          "type": "bytes32"
        },
        {
          "indexed": false,
          "internalType": "uint256",
          "name": "lastPrice",
          "type": "uint256"
        },
        {
          "indexed": false,
          "internalType": "uint256",
          "name": "newPrice",
          "type": "uint256"
        }
      ],
      "name": "AssetPriceUpdated",
      "type": "event"
    },
    {
      "anonymous": false,
      "inputs": [
        {
          "indexed": true,
          "internalType": "bytes32",
          "name": "id",
          "type": "bytes32"
        }
      ],
      "name": "ChainlinkCancelled",
      "type": "event"
    },
    {
      "anonymous": false,
      "inputs": [
        {
          "indexed": true,
          "internalType": "bytes32",
          "name": "id",
          "type": "bytes32"
        }
      ],
      "name": "ChainlinkFulfilled",
      "type": "event"
    },
    {
      "anonymous": false,
      "inputs": [
        {
          "indexed": true,
          "internalType": "bytes32",
          "name": "id",
          "type": "bytes32"
        }
      ],
      "name": "ChainlinkRequested",
      "type": "event"
    },
    {
      "anonymous": false,
      "inputs": [
        {
          "indexed": false,
          "internalType": "address",
          "name": "oldAddress",
          "type": "address"
        },
        {
          "indexed": false,
          "internalType": "address",
          "name": "newAddress",
          "type": "address"
        }
      ],
      "name": "HubAddressUpdated",
      "type": "event"
    },
    {
      "anonymous": false,
      "inputs": [
        {
          "indexed": false,
          "internalType": "bytes32",
          "name": "oldId",
          "type": "bytes32"
        },
        {
          "indexed": false,
          "internalType": "bytes32",
          "name": "newId",
          "type": "bytes32"
        }
      ],
      "name": "JobIDUpdated",
      "type": "event"
    },
    {
      "anonymous": false,
      "inputs": [
        {
          "indexed": false,
          "internalType": "address",
          "name": "oldAddress",
          "type": "address"
        },
        {
          "indexed": false,
          "internalType": "address",
          "name": "newAddress",
          "type": "address"
        }
      ],
      "name": "KeepersRegistryAddressUpdated",
      "type": "event"
    },
    {
      "anonymous": false,
      "inputs": [
        {
          "indexed": false,
          "internalType": "address",
          "name": "oldAddress",
          "type": "address"
        },
        {
          "indexed": false,
          "internalType": "address",
          "name": "newAddress",
          "type": "address"
        }
      ],
      "name": "OracleAddressUpdated",
      "type": "event"
    },
    {
      "anonymous": false,
      "inputs": [],
      "name": "Paused",
      "type": "event"
    },
    {
      "anonymous": false,
      "inputs": [],
      "name": "Unpaused",
      "type": "event"
    },
    {
      "anonymous": false,
      "inputs": [
        {
          "indexed": false,
          "internalType": "int256",
          "name": "lastPrice",
          "type": "int256"
        },
        {
          "indexed": false,
          "internalType": "int256",
          "name": "newPrice",
          "type": "int256"
        }
      ],
      "name": "UsdcPriceUpdated",
      "type": "event"
    },
    {
      "anonymous": false,
      "inputs": [
        {
          "indexed": true,
          "internalType": "address",
          "name": "addr",
          "type": "address"
        },
        {
          "indexed": false,
          "internalType": "uint256",
          "name": "amount",
          "type": "uint256"
        }
      ],
      "name": "Withdraw",
      "type": "event"
    },
    {
      "inputs": [
        {
          "internalType": "string",
          "name": "_asset",
          "type": "string"
        }
      ],
      "name": "addAsset",
      "outputs": [],
      "stateMutability": "nonpayable",
      "type": "function"
    },
    {
      "inputs": [],
      "name": "aggregatorAddress",
      "outputs": [
        {
          "internalType": "address",
          "name": "",
          "type": "address"
        }
      ],
      "stateMutability": "view",
      "type": "function"
    },
    {
      "inputs": [
        {
          "internalType": "uint256",
          "name": "",
          "type": "uint256"
        }
      ],
      "name": "assetList",
      "outputs": [
        {
          "internalType": "string",
          "name": "",
          "type": "string"
        }
      ],
      "stateMutability": "view",
      "type": "function"
    },
    {
      "inputs": [
        {
          "internalType": "string",
          "name": "",
          "type": "string"
        }
      ],
      "name": "assetToPrice",
      "outputs": [
        {
          "internalType": "uint256",
          "name": "price",
          "type": "uint256"
        },
        {
          "internalType": "bool",
          "name": "exists",
          "type": "bool"
        }
      ],
      "stateMutability": "view",
      "type": "function"
    },
    {
      "inputs": [
        {
          "internalType": "bytes",
          "name": "",
          "type": "bytes"
        }
      ],
      "name": "checkUpkeep",
      "outputs": [
        {
          "internalType": "bool",
          "name": "",
          "type": "bool"
        },
        {
          "internalType": "bytes",
          "name": "",
          "type": "bytes"
        }
      ],
      "stateMutability": "view",
      "type": "function"
    },
    {
      "inputs": [
        {
          "internalType": "bytes32",
          "name": "_requestId",
          "type": "bytes32"
        },
        {
          "internalType": "uint256",
          "name": "_price",
          "type": "uint256"
        }
      ],
      "name": "fulfill",
      "outputs": [],
      "stateMutability": "nonpayable",
      "type": "function"
    },
    {
      "inputs": [],
      "name": "getAssetList",
      "outputs": [
        {
          "internalType": "string[]",
          "name": "",
          "type": "string[]"
        }
      ],
      "stateMutability": "view",
      "type": "function"
    },
    {
      "inputs": [
        {
          "internalType": "string",
          "name": "_asset",
          "type": "string"
        }
      ],
      "name": "getAssetPrice",
      "outputs": [
        {
          "internalType": "uint256",
          "name": "",
          "type": "uint256"
        }
      ],
      "stateMutability": "view",
      "type": "function"
    },
    {
      "inputs": [],
      "name": "getUSDCPrice",
      "outputs": [
        {
          "internalType": "int256",
          "name": "",
          "type": "int256"
        }
      ],
      "stateMutability": "view",
      "type": "function"
    },
    {
      "inputs": [],
      "name": "hubAddress",
      "outputs": [
        {
          "internalType": "address",
          "name": "",
          "type": "address"
        }
      ],
      "stateMutability": "view",
      "type": "function"
    },
    {
      "inputs": [],
      "name": "interval",
      "outputs": [
        {
          "internalType": "uint256",
          "name": "",
          "type": "uint256"
        }
      ],
      "stateMutability": "view",
      "type": "function"
    },
    {
      "inputs": [],
      "name": "keepersRegistryAddress",
      "outputs": [
        {
          "internalType": "address",
          "name": "",
          "type": "address"
        }
      ],
      "stateMutability": "view",
      "type": "function"
    },
    {
      "inputs": [],
      "name": "lastTimeStamp",
      "outputs": [
        {
          "internalType": "uint256",
          "name": "",
          "type": "uint256"
        }
      ],
      "stateMutability": "view",
      "type": "function"
    },
    {
      "inputs": [],
      "name": "owner",
      "outputs": [
        {
          "internalType": "address",
          "name": "",
          "type": "address"
        }
      ],
      "stateMutability": "view",
      "type": "function"
    },
    {
      "inputs": [],
      "name": "pause",
      "outputs": [],
      "stateMutability": "nonpayable",
      "type": "function"
    },
    {
      "inputs": [],
      "name": "paused",
      "outputs": [
        {
          "internalType": "bool",
          "name": "",
          "type": "bool"
        }
      ],
      "stateMutability": "view",
      "type": "function"
    },
    {
      "inputs": [
        {
          "internalType": "bytes",
          "name": "",
          "type": "bytes"
        }
      ],
      "name": "performUpkeep",
      "outputs": [],
      "stateMutability": "nonpayable",
      "type": "function"
    },
    {
      "inputs": [
        {
          "internalType": "address",
          "name": "_aggregatorAddress",
          "type": "address"
        }
      ],
      "name": "setAggregatorAddress",
      "outputs": [],
      "stateMutability": "nonpayable",
      "type": "function"
    },
    {
      "inputs": [
        {
          "internalType": "string",
          "name": "_apiKey",
          "type": "string"
        }
      ],
      "name": "setApiKey",
      "outputs": [],
      "stateMutability": "nonpayable",
      "type": "function"
    },
    {
      "inputs": [
        {
          "internalType": "string",
          "name": "_asset",
          "type": "string"
        },
        {
          "internalType": "uint256",
          "name": "_price",
          "type": "uint256"
        }
      ],
      "name": "setAssetPrice",
      "outputs": [],
      "stateMutability": "nonpayable",
      "type": "function"
    },
    {
      "inputs": [
        {
          "internalType": "address",
          "name": "_hubAddress",
          "type": "address"
        }
      ],
      "name": "setHubAddress",
      "outputs": [],
      "stateMutability": "nonpayable",
      "type": "function"
    },
    {
      "inputs": [
        {
          "internalType": "bytes32",
          "name": "_jobId",
          "type": "bytes32"
        }
      ],
      "name": "setJobId",
      "outputs": [],
      "stateMutability": "nonpayable",
      "type": "function"
    },
    {
      "inputs": [
        {
          "internalType": "address",
          "name": "_keepersRegistryAddress",
          "type": "address"
        }
      ],
      "name": "setKeepersRegistryAddress",
      "outputs": [],
      "stateMutability": "nonpayable",
      "type": "function"
    },
    {
      "inputs": [
        {
          "internalType": "address",
          "name": "_oracleAddress",
          "type": "address"
        }
      ],
      "name": "setOracleAddress",
      "outputs": [],
      "stateMutability": "nonpayable",
      "type": "function"
    },
    {
      "inputs": [
        {
          "internalType": "int256",
          "name": "_price",
          "type": "int256"
        }
      ],
      "name": "setUsdcPrice",
      "outputs": [],
      "stateMutability": "nonpayable",
      "type": "function"
    },
    {
      "inputs": [],
      "name": "unpause",
      "outputs": [],
      "stateMutability": "nonpayable",
      "type": "function"
    },
    {
      "inputs": [
        {
          "internalType": "string",
          "name": "_asset",
          "type": "string"
        }
      ],
      "name": "updateAssetPrice",
      "outputs": [
        {
          "internalType": "bytes32",
          "name": "requestId",
          "type": "bytes32"
        }
      ],
      "stateMutability": "nonpayable",
      "type": "function"
    },
    {
      "inputs": [],
      "name": "updateUSDCPrice",
      "outputs": [],
      "stateMutability": "nonpayable",
      "type": "function"
    },
    {
      "inputs": [],
      "name": "withdraw",
      "outputs": [],
      "stateMutability": "nonpayable",
      "type": "function"
    }
  ],
  "bytecode": "0x60a060405260016004553480156200001657600080fd5b50604051620058543803806200585483398181016040528101906200003c91906200062f565b84600073ffffffffffffffffffffffffffffffffffffffff168173ffffffffffffffffffffffffffffffffffffffff161415620000b0576040517f08c379a0000000000000000000000000000000000000000000000000000000008152600401620000a79062000786565b60405180910390fd5b84600073ffffffffffffffffffffffffffffffffffffffff168173ffffffffffffffffffffffffffffffffffffffff16141562000124576040517f08c379a00000000000000000000000000000000000000000000000000000000081526004016200011b9062000786565b60405180910390fd5b8360008151116200016c576040517f08c379a00000000000000000000000000000000000000000000000000000000081526004016200016390620007ca565b60405180910390fd5b856000602060ff1611620001b7576040517f08c379a0000000000000000000000000000000000000000000000000000000008152600401620001ae90620007ec565b60405180910390fd5b60008511620001fd576040517f08c379a0000000000000000000000000000000000000000000000000000000008152600401620001f490620007a8565b60405180910390fd5b33600f60006101000a81548173ffffffffffffffffffffffffffffffffffffffff021916908373ffffffffffffffffffffffffffffffffffffffff160217905550600073ffffffffffffffffffffffffffffffffffffffff168a73ffffffffffffffffffffffffffffffffffffffff1614156200028a57620002846200039e60201b60201c565b6200029c565b6200029b8a6200044660201b60201c565b5b88601160006101000a81548173ffffffffffffffffffffffffffffffffffffffff021916908373ffffffffffffffffffffffffffffffffffffffff16021790555088600660006101000a81548173ffffffffffffffffffffffffffffffffffffffff021916908373ffffffffffffffffffffffffffffffffffffffff16021790555087600760006101000a81548173ffffffffffffffffffffffffffffffffffffffff021916908373ffffffffffffffffffffffffffffffffffffffff1602179055508660088190555085600990805190602001906200037e9291906200048a565b50846080818152505042600a819055505050505050505050505062000b75565b6200044473c89bd4e1632d3a43cb03aaad5262cbe4038bc57173ffffffffffffffffffffffffffffffffffffffff166338cc48316040518163ffffffff1660e01b815260040160206040518083038186803b158015620003fd57600080fd5b505afa15801562000412573d6000803e3d6000fd5b505050506040513d601f19601f82011682018060405250810190620004389190620005fd565b6200044660201b60201c565b565b80600260006101000a81548173ffffffffffffffffffffffffffffffffffffffff021916908373ffffffffffffffffffffffffffffffffffffffff16021790555050565b8280546200049890620008fc565b90600052602060002090601f016020900481019282620004bc576000855562000508565b82601f10620004d757805160ff191683800117855562000508565b8280016001018555821562000508579182015b8281111562000507578251825591602001919060010190620004ea565b5b5090506200051791906200051b565b5090565b5b80821115620005365760008160009055506001016200051c565b5090565b6000620005516200054b8462000837565b6200080e565b90508281526020810184848401111562000570576200056f620009cb565b5b6200057d848285620008c6565b509392505050565b600081519050620005968162000b27565b92915050565b600081519050620005ad8162000b41565b92915050565b600082601f830112620005cb57620005ca620009c6565b5b8151620005dd8482602086016200053a565b91505092915050565b600081519050620005f78162000b5b565b92915050565b600060208284031215620006165762000615620009d5565b5b6000620006268482850162000585565b91505092915050565b60008060008060008060c087890312156200064f576200064e620009d5565b5b60006200065f89828a0162000585565b96505060206200067289828a0162000585565b95505060406200068589828a0162000585565b94505060606200069889828a016200059c565b935050608087015167ffffffffffffffff811115620006bc57620006bb620009d0565b5b620006ca89828a01620005b3565b92505060a0620006dd89828a01620005e6565b9150509295509295509295565b6000620006f96024836200086d565b91506200070682620009eb565b604082019050919050565b600062000720602f836200086d565b91506200072d8262000a3a565b604082019050919050565b6000620007476024836200086d565b9150620007548262000a89565b604082019050919050565b60006200076e6023836200086d565b91506200077b8262000ad8565b604082019050919050565b60006020820190508181036000830152620007a181620006ea565b9050919050565b60006020820190508181036000830152620007c38162000711565b9050919050565b60006020820190508181036000830152620007e58162000738565b9050919050565b6000602082019050818103600083015262000807816200075f565b9050919050565b60006200081a6200082d565b905062000828828262000932565b919050565b6000604051905090565b600067ffffffffffffffff82111562000855576200085462000997565b5b6200086082620009da565b9050602081019050919050565b600082825260208201905092915050565b60006200088b826200089c565b9050919050565b6000819050919050565b600073ffffffffffffffffffffffffffffffffffffffff82169050919050565b6000819050919050565b60005b83811015620008e6578082015181840152602081019050620008c9565b83811115620008f6576000848401525b50505050565b600060028204905060018216806200091557607f821691505b602082108114156200092c576200092b62000968565b5b50919050565b6200093d82620009da565b810181811067ffffffffffffffff821117156200095f576200095e62000997565b5b80604052505050565b7f4e487b7100000000000000000000000000000000000000000000000000000000600052602260045260246000fd5b7f4e487b7100000000000000000000000000000000000000000000000000000000600052604160045260246000fd5b600080fd5b600080fd5b600080fd5b600080fd5b6000601f19601f8301169050919050565b7f546865206164647265737320706172616d657465722063616e6e6f742062652060008201527f6e756c6c00000000000000000000000000000000000000000000000000000000602082015250565b7f5468652075706461746520696e74657276616c2068617320746f20626520677260008201527f6561746572207468616e207a65726f0000000000000000000000000000000000602082015250565b7f54686520737472696e6720706172616d657465722063616e6e6f74206265206560008201527f6d70747900000000000000000000000000000000000000000000000000000000602082015250565b7f54686520627974657320706172616d657465722063616e6e6f7420626520656d60008201527f7074790000000000000000000000000000000000000000000000000000000000602082015250565b62000b32816200087e565b811462000b3e57600080fd5b50565b62000b4c8162000892565b811462000b5857600080fd5b50565b62000b6681620008bc565b811462000b7257600080fd5b50565b608051614cb562000b9f60003960008181610f260152818161157b01526117230152614cb56000f3fe608060405234801561001057600080fd5b50600436106101cf5760003560e01c8063508954f811610104578063a7c6b52e116100a2578063db03704111610071578063db037041146104aa578063db9aa2f9146104da578063f69b1b29146104f6578063f9c33bab14610514576101cf565b8063a7c6b52e1461043a578063b78107ca14610456578063c7eb452214610472578063d6911ac51461048e576101cf565b80638456cb59116100de5780638456cb59146103c45780638da5cb5b146103ce578063947a36fb146103ec578063a0b4b3011461040a576101cf565b8063508954f8146103595780635c975abb146103755780636e04ff0d14610393576101cf565b80633f4ba83a11610171578063476459f51161014b578063476459f5146102e557806347b32448146103035780634ad517bc1461031f5780634c69c00f1461033d576101cf565b80633f4ba83a146102a35780634357855e146102ad5780634585e33b146102c9576101cf565b80633765c0b8116101ad5780633765c0b81461023f578063380bbe531461025d5780633ccfd60b1461027b5780633f3b3b2714610285576101cf565b806318f0d35c146101d4578063295eb79c146101de5780632aedd0eb1461020f575b600080fd5b6101dc610530565b005b6101f860048036038101906101f39190613417565b6106ca565b604051610206929190613fc6565b60405180910390f35b61022960048036038101906102249190613417565b610711565b6040516102369190613fab565b60405180910390f35b6102476107f0565b6040516102549190613c7d565b60405180910390f35b6102656108c9565b6040516102729190613b4d565b60405180910390f35b6102836108ef565b005b61028d610ae2565b60405161029a9190613fab565b60405180910390f35b6102ab610ae8565b005b6102c760048036038101906102c2919061335d565b610c10565b005b6102e360048036038101906102de919061339d565b610e3c565b005b6102ed611041565b6040516102fa9190613b4d565b60405180910390f35b61031d600480360381019061031891906132d6565b611067565b005b610327611249565b6040516103349190613d2e565b60405180910390f35b610357600480360381019061035291906132d6565b611253565b005b610373600480360381019061036e9190613330565b6113f4565b005b61037d611512565b60405161038a9190613c9f565b60405180910390f35b6103ad60048036038101906103a8919061339d565b611525565b6040516103bb929190613cba565b60405180910390f35b6103cc6115d2565b005b6103d66116fb565b6040516103e39190613b4d565b60405180910390f35b6103f4611721565b6040516104019190613fab565b60405180910390f35b610424600480360381019061041f91906134bc565b611745565b6040516104319190613d72565b60405180910390f35b610454600480360381019061044f9190613417565b6117f1565b005b610470600480360381019061046b9190613460565b611a07565b005b61048c600480360381019061048791906132d6565b611bf0565b005b6104a860048036038101906104a39190613417565b611d91565b005b6104c460048036038101906104bf9190613417565b611ebb565b6040516104d19190613cea565b60405180910390f35b6104f460048036038101906104ef91906133ea565b6122db565b005b6104fe6123b0565b60405161050b9190613b4d565b60405180910390f35b61052e600480360381019061052991906132d6565b6123d6565b005b601260009054906101000a900473ffffffffffffffffffffffffffffffffffffffff1673ffffffffffffffffffffffffffffffffffffffff163373ffffffffffffffffffffffffffffffffffffffff1614806105d95750600f60009054906101000a900473ffffffffffffffffffffffffffffffffffffffff1673ffffffffffffffffffffffffffffffffffffffff163373ffffffffffffffffffffffffffffffffffffffff16145b610618576040517f08c379a000000000000000000000000000000000000000000000000000000000815260040161060f90613f4b565b60405180910390fd5b6000600660009054906101000a900473ffffffffffffffffffffffffffffffffffffffff1673ffffffffffffffffffffffffffffffffffffffff1663feaf968c6040518163ffffffff1660e01b815260040160a06040518083038186803b15801561068257600080fd5b505afa158015610696573d6000803e3d6000fd5b505050506040513d601f19601f820116820180604052508101906106ba9190613516565b50505091505080600b8190555050565b600d818051602081018201805184825260208301602085012081835280955050505050506000915090508060000154908060010160009054906101000a900460ff16905082565b6000816000815111610758576040517f08c379a000000000000000000000000000000000000000000000000000000000815260040161074f90613ecb565b60405180910390fd5b600d836040516107689190613afc565b908152602001604051809103902060010160009054906101000a900460ff166107c6576040517f08c379a00000000000000000000000000000000000000000000000000000000081526004016107bd90613f0b565b60405180910390fd5b600d836040516107d69190613afc565b908152602001604051809103902060000154915050919050565b6060600e805480602002602001604051908101604052809291908181526020016000905b828210156108c05783829060005260206000200180546108339061450f565b80601f016020809104026020016040519081016040528092919081815260200182805461085f9061450f565b80156108ac5780601f10610881576101008083540402835291602001916108ac565b820191906000526020600020905b81548152906001019060200180831161088f57829003601f168201915b505050505081526020019060010190610814565b50505050905090565b601160009054906101000a900473ffffffffffffffffffffffffffffffffffffffff1681565b600f60009054906101000a900473ffffffffffffffffffffffffffffffffffffffff1673ffffffffffffffffffffffffffffffffffffffff163373ffffffffffffffffffffffffffffffffffffffff161461097f576040517f08c379a000000000000000000000000000000000000000000000000000000000815260040161097690613eeb565b60405180910390fd5b6000610989612577565b90508073ffffffffffffffffffffffffffffffffffffffff1663a9059cbb338373ffffffffffffffffffffffffffffffffffffffff166370a08231306040518263ffffffff1660e01b81526004016109e19190613b4d565b60206040518083038186803b1580156109f957600080fd5b505afa158015610a0d573d6000803e3d6000fd5b505050506040513d601f19601f82011682018060405250810190610a3191906134e9565b6040518363ffffffff1660e01b8152600401610a4e929190613b91565b602060405180830381600087803b158015610a6857600080fd5b505af1158015610a7c573d6000803e3d6000fd5b505050506040513d601f19601f82011682018060405250810190610aa09190613303565b610adf576040517f08c379a0000000000000000000000000000000000000000000000000000000008152600401610ad690613eab565b60405180910390fd5b50565b600a5481565b600f60009054906101000a900473ffffffffffffffffffffffffffffffffffffffff1673ffffffffffffffffffffffffffffffffffffffff163373ffffffffffffffffffffffffffffffffffffffff1614610b78576040517f08c379a0000000000000000000000000000000000000000000000000000000008152600401610b6f90613eeb565b60405180910390fd5b601260149054906101000a900460ff16610bc7576040517f08c379a0000000000000000000000000000000000000000000000000000000008152600401610bbe90613f6b565b60405180910390fd5b6000601260146101000a81548160ff0219169083151502179055507fa45f47fdea8a1efdd9029a5691c7f759c32b7c698632b563573e155625d1693360405160405180910390a1565b816005600082815260200190815260200160002060009054906101000a900473ffffffffffffffffffffffffffffffffffffffff1673ffffffffffffffffffffffffffffffffffffffff163373ffffffffffffffffffffffffffffffffffffffff1614610cb2576040517f08c379a0000000000000000000000000000000000000000000000000000000008152600401610ca990613f2b565b60405180910390fd5b6005600082815260200190815260200160002060006101000a81549073ffffffffffffffffffffffffffffffffffffffff0219169055807f7cc135e0cebb02c3480ae5d74d377283180a2601f8f644edf7987b009316c63a60405160405180910390a26000600c60008581526020019081526020016000208054610d359061450f565b80601f0160208091040260200160405190810160405280929190818152602001828054610d619061450f565b8015610dae5780601f10610d8357610100808354040283529160200191610dae565b820191906000526020600020905b815481529060010190602001808311610d9157829003601f168201915b50505050509050837fd335ef42deb71132f7d41340205a11a3a2c4c5817adefe3caa2927fdb366ec9b600d83604051610de79190613afc565b90815260200160405180910390206000015485604051610e08929190613fef565b60405180910390a282600d82604051610e219190613afc565b90815260200160405180910390206000018190555050505050565b601260009054906101000a900473ffffffffffffffffffffffffffffffffffffffff1673ffffffffffffffffffffffffffffffffffffffff163373ffffffffffffffffffffffffffffffffffffffff161480610ee55750600f60009054906101000a900473ffffffffffffffffffffffffffffffffffffffff1673ffffffffffffffffffffffffffffffffffffffff163373ffffffffffffffffffffffffffffffffffffffff16145b610f24576040517f08c379a0000000000000000000000000000000000000000000000000000000008152600401610f1b90613f4b565b60405180910390fd5b7f0000000000000000000000000000000000000000000000000000000000000000600a5442610f5391906143c5565b111561103d5742600a81905550610f68610530565b60005b600e8054905081101561103b57611027600e8281548110610f8f57610f8e6146a7565b5b906000526020600020018054610fa49061450f565b80601f0160208091040260200160405190810160405280929190818152602001828054610fd09061450f565b801561101d5780601f10610ff25761010080835404028352916020019161101d565b820191906000526020600020905b81548152906001019060200180831161100057829003601f168201915b5050505050611ebb565b50808061103390614572565b915050610f6b565b505b5050565b601260009054906101000a900473ffffffffffffffffffffffffffffffffffffffff1681565b600f60009054906101000a900473ffffffffffffffffffffffffffffffffffffffff1673ffffffffffffffffffffffffffffffffffffffff163373ffffffffffffffffffffffffffffffffffffffff16146110f7576040517f08c379a00000000000000000000000000000000000000000000000000000000081526004016110ee90613eeb565b60405180910390fd5b80600073ffffffffffffffffffffffffffffffffffffffff168173ffffffffffffffffffffffffffffffffffffffff161415611168576040517f08c379a000000000000000000000000000000000000000000000000000000000815260040161115f90613e4b565b60405180910390fd5b7f54e7bf22fc873448922e314922bf85cfc8dd08cbd1c991474f6ffb4ec50254b5601160009054906101000a900473ffffffffffffffffffffffffffffffffffffffff16836040516111bb929190613b68565b60405180910390a181601160006101000a81548173ffffffffffffffffffffffffffffffffffffffff021916908373ffffffffffffffffffffffffffffffffffffffff16021790555081600660006101000a81548173ffffffffffffffffffffffffffffffffffffffff021916908373ffffffffffffffffffffffffffffffffffffffff1602179055505050565b6000600b54905090565b600f60009054906101000a900473ffffffffffffffffffffffffffffffffffffffff1673ffffffffffffffffffffffffffffffffffffffff163373ffffffffffffffffffffffffffffffffffffffff16146112e3576040517f08c379a00000000000000000000000000000000000000000000000000000000081526004016112da90613eeb565b60405180910390fd5b80600073ffffffffffffffffffffffffffffffffffffffff168173ffffffffffffffffffffffffffffffffffffffff161415611354576040517f08c379a000000000000000000000000000000000000000000000000000000000815260040161134b90613e4b565b60405180910390fd5b7fd3afd1676752459d3aa8b6f73633fac8efd724610da9c4cd8d8e4fa1631841fb600760009054906101000a900473ffffffffffffffffffffffffffffffffffffffff16836040516113a7929190613b68565b60405180910390a181600760006101000a81548173ffffffffffffffffffffffffffffffffffffffff021916908373ffffffffffffffffffffffffffffffffffffffff1602179055505050565b600f60009054906101000a900473ffffffffffffffffffffffffffffffffffffffff1673ffffffffffffffffffffffffffffffffffffffff163373ffffffffffffffffffffffffffffffffffffffff1614611484576040517f08c379a000000000000000000000000000000000000000000000000000000000815260040161147b90613eeb565b60405180910390fd5b806000602060ff16116114cc576040517f08c379a00000000000000000000000000000000000000000000000000000000081526004016114c390613f8b565b60405180910390fd5b7ffb8d4ac17fdb5fbb3b325eb277fceadd1a368bddea32ab4dcc670ddbf49f7e05600854836040516114ff929190613d05565b60405180910390a1816008819055505050565b601260149054906101000a900460ff1681565b60006060601260149054906101000a900460ff1615611579576040517f08c379a000000000000000000000000000000000000000000000000000000000815260040161157090613dcb565b60405180910390fd5b7f0000000000000000000000000000000000000000000000000000000000000000600a54426115a891906143c5565b116040516020016115b890613deb565b604051602081830303815290604052915091509250929050565b600f60009054906101000a900473ffffffffffffffffffffffffffffffffffffffff1673ffffffffffffffffffffffffffffffffffffffff163373ffffffffffffffffffffffffffffffffffffffff1614611662576040517f08c379a000000000000000000000000000000000000000000000000000000000815260040161165990613eeb565b60405180910390fd5b601260149054906101000a900460ff16156116b2576040517f08c379a00000000000000000000000000000000000000000000000000000000081526004016116a990613e6b565b60405180910390fd5b6001601260146101000a81548160ff0219169083151502179055507f9e87fac88ff661f02d44f95383c817fece4bce600a3dab7a54406878b965e75260405160405180910390a1565b600f60009054906101000a900473ffffffffffffffffffffffffffffffffffffffff1681565b7f000000000000000000000000000000000000000000000000000000000000000081565b600e818154811061175557600080fd5b9060005260206000200160009150905080546117709061450f565b80601f016020809104026020016040519081016040528092919081815260200182805461179c9061450f565b80156117e95780601f106117be576101008083540402835291602001916117e9565b820191906000526020600020905b8154815290600101906020018083116117cc57829003601f168201915b505050505081565b806000815111611836576040517f08c379a000000000000000000000000000000000000000000000000000000000815260040161182d90613ecb565b60405180910390fd5b601060009054906101000a900473ffffffffffffffffffffffffffffffffffffffff1673ffffffffffffffffffffffffffffffffffffffff163373ffffffffffffffffffffffffffffffffffffffff1614806118df5750600f60009054906101000a900473ffffffffffffffffffffffffffffffffffffffff1673ffffffffffffffffffffffffffffffffffffffff163373ffffffffffffffffffffffffffffffffffffffff16145b61191e576040517f08c379a000000000000000000000000000000000000000000000000000000000815260040161191590613e2b565b60405180910390fd5b600d8260405161192e9190613afc565b908152602001604051809103902060010160009054906101000a900460ff161561198d576040517f08c379a000000000000000000000000000000000000000000000000000000000815260040161198490613e8b565b60405180910390fd5b600e829080600181540180825580915050600190039060005260206000200160009091909190915090805190602001906119c892919061303e565b506001600d836040516119db9190613afc565b908152602001604051809103902060010160006101000a81548160ff0219169083151502179055505050565b600f60009054906101000a900473ffffffffffffffffffffffffffffffffffffffff1673ffffffffffffffffffffffffffffffffffffffff163373ffffffffffffffffffffffffffffffffffffffff1614611a97576040517f08c379a0000000000000000000000000000000000000000000000000000000008152600401611a8e90613eeb565b60405180910390fd5b816000815111611adc576040517f08c379a0000000000000000000000000000000000000000000000000000000008152600401611ad390613ecb565b60405180910390fd5b600d83604051611aec9190613afc565b908152602001604051809103902060010160009054906101000a900460ff16611b4a576040517f08c379a0000000000000000000000000000000000000000000000000000000008152600401611b4190613f0b565b60405180910390fd5b7f54455354000000000000000000000000000000000000000000000000000000007fd335ef42deb71132f7d41340205a11a3a2c4c5817adefe3caa2927fdb366ec9b600d85604051611b9c9190613afc565b90815260200160405180910390206000015484604051611bbd929190613fef565b60405180910390a281600d84604051611bd69190613afc565b908152602001604051809103902060000181905550505050565b600f60009054906101000a900473ffffffffffffffffffffffffffffffffffffffff1673ffffffffffffffffffffffffffffffffffffffff163373ffffffffffffffffffffffffffffffffffffffff1614611c80576040517f08c379a0000000000000000000000000000000000000000000000000000000008152600401611c7790613eeb565b60405180910390fd5b80600073ffffffffffffffffffffffffffffffffffffffff168173ffffffffffffffffffffffffffffffffffffffff161415611cf1576040517f08c379a0000000000000000000000000000000000000000000000000000000008152600401611ce890613e4b565b60405180910390fd5b7fb901fe574578be0266f546b6a7402d2d41ff562025f50bdc27a2204347dbc148601060009054906101000a900473ffffffffffffffffffffffffffffffffffffffff1683604051611d44929190613b68565b60405180910390a181601060006101000a81548173ffffffffffffffffffffffffffffffffffffffff021916908373ffffffffffffffffffffffffffffffffffffffff1602179055505050565b600f60009054906101000a900473ffffffffffffffffffffffffffffffffffffffff1673ffffffffffffffffffffffffffffffffffffffff163373ffffffffffffffffffffffffffffffffffffffff1614611e21576040517f08c379a0000000000000000000000000000000000000000000000000000000008152600401611e1890613eeb565b60405180910390fd5b806000815111611e66576040517f08c379a0000000000000000000000000000000000000000000000000000000008152600401611e5d90613ecb565b60405180910390fd5b7fa52e46c52de84b118fe24eb8e6d29091c4bb48546aa747cdfea4bfd192e4a37c600983604051611e98929190613d94565b60405180910390a18160099080519060200190611eb692919061303e565b505050565b6000601260009054906101000a900473ffffffffffffffffffffffffffffffffffffffff1673ffffffffffffffffffffffffffffffffffffffff163373ffffffffffffffffffffffffffffffffffffffff161480611f665750600f60009054906101000a900473ffffffffffffffffffffffffffffffffffffffff1673ffffffffffffffffffffffffffffffffffffffff163373ffffffffffffffffffffffffffffffffffffffff16145b611fa5576040517f08c379a0000000000000000000000000000000000000000000000000000000008152600401611f9c90613f4b565b60405180910390fd5b816000815111611fea576040517f08c379a0000000000000000000000000000000000000000000000000000000008152600401611fe190613ecb565b60405180910390fd5b600d83604051611ffa9190613afc565b908152602001604051809103902060010160009054906101000a900460ff16612058576040517f08c379a000000000000000000000000000000000000000000000000000000000815260040161204f90613f0b565b60405180910390fd5b600061206e60085430634357855e60e01b6125a1565b90506000846009604051602001612086929190613b13565b60405160208183030381529060405290506120e16040518060400160405280600381526020017f676574000000000000000000000000000000000000000000000000000000000081525082846125d29092919063ffffffff16565b6000600267ffffffffffffffff8111156120fe576120fd6146d6565b5b60405190808252806020026020018201604052801561213157816020015b606081526020019060019003908161211c5790505b5090506040518060400160405280600c81526020017f476c6f62616c2051756f746500000000000000000000000000000000000000008152508160008151811061217e5761217d6146a7565b5b60200260200101819052506040518060400160405280600981526020017f30352e2070726963650000000000000000000000000000000000000000000000815250816001815181106121d3576121d26146a7565b5b60200260200101819052506122286040518060400160405280600481526020017f706174680000000000000000000000000000000000000000000000000000000081525082856126059092919063ffffffff16565b6122736040518060400160405280600581526020017f74696d657300000000000000000000000000000000000000000000000000000081525060648561268c9092919063ffffffff16565b6122a8600760009054906101000a900473ffffffffffffffffffffffffffffffffffffffff168467016345785d8a00006126bf565b945085600c600087815260200190815260200160002090805190602001906122d192919061303e565b5050505050919050565b600f60009054906101000a900473ffffffffffffffffffffffffffffffffffffffff1673ffffffffffffffffffffffffffffffffffffffff163373ffffffffffffffffffffffffffffffffffffffff161461236b576040517f08c379a000000000000000000000000000000000000000000000000000000000815260040161236290613eeb565b60405180910390fd5b7f508f85e017d60512f76e5eb615ba0e54c8a12076a441515a953b1d557104d191600b548260405161239e929190613d49565b60405180910390a180600b8190555050565b601060009054906101000a900473ffffffffffffffffffffffffffffffffffffffff1681565b600f60009054906101000a900473ffffffffffffffffffffffffffffffffffffffff1673ffffffffffffffffffffffffffffffffffffffff163373ffffffffffffffffffffffffffffffffffffffff1614612466576040517f08c379a000000000000000000000000000000000000000000000000000000000815260040161245d90613eeb565b60405180910390fd5b80600073ffffffffffffffffffffffffffffffffffffffff168173ffffffffffffffffffffffffffffffffffffffff1614156124d7576040517f08c379a00000000000000000000000000000000000000000000000000000000081526004016124ce90613e4b565b60405180910390fd5b7f7d70ef516cb0f39d5bbf094877c6f1111f26e66557ad533a4b5e919dcf0e2f1d601260009054906101000a900473ffffffffffffffffffffffffffffffffffffffff168360405161252a929190613b68565b60405180910390a181601260006101000a81548173ffffffffffffffffffffffffffffffffffffffff021916908373ffffffffffffffffffffffffffffffffffffffff1602179055505050565b6000600260009054906101000a900473ffffffffffffffffffffffffffffffffffffffff16905090565b6125a96130c4565b6125b16130c4565b6125c88585858461278b909392919063ffffffff16565b9150509392505050565b6125e982846080015161283b90919063ffffffff16565b61260081846080015161283b90919063ffffffff16565b505050565b61261c82846080015161283b90919063ffffffff16565b6126298360800151612860565b60005b81518110156126795761266682828151811061264b5761264a6146a7565b5b6020026020010151856080015161283b90919063ffffffff16565b808061267190614572565b91505061262c565b50612687836080015161286e565b505050565b6126a382846080015161283b90919063ffffffff16565b6126ba81846080015161287c90919063ffffffff16565b505050565b60008060045490506001816126d49190614110565b6004819055506000634042994660e01b60008087600001513089604001518760018c6080015160000151604051602401612715989796959493929190613bba565b604051602081830303815290604052907bffffffffffffffffffffffffffffffffffffffffffffffffffffffff19166020820180517bffffffffffffffffffffffffffffffffffffffffffffffffffffffff8381831617835250505050905061278086838684612929565b925050509392505050565b6127936130c4565b6127a38560800151610100612acd565b508385600001818152505082856020019073ffffffffffffffffffffffffffffffffffffffff16908173ffffffffffffffffffffffffffffffffffffffff16815250508185604001907bffffffffffffffffffffffffffffffffffffffffffffffffffffffff191690817bffffffffffffffffffffffffffffffffffffffffffffffffffffffff191681525050849050949350505050565b6128488260038351612b37565b61285b8183612cbc90919063ffffffff16565b505050565b61286b816004612cde565b50565b612879816007612cde565b50565b7fffffffffffffffffffffffffffffffffffffffffffffffff00000000000000008112156128b3576128ae8282612d00565b612925565b67ffffffffffffffff8113156128d2576128cd8282612d77565b612924565b600081126128eb576128e682600083612b37565b612923565b612922826001837fffffffffffffffffffffffffffffffffffffffffffffffffffffffffffffffff61291d9190614331565b612b37565b5b5b5b5050565b6000308460405160200161293e929190613ad0565b604051602081830303815290604052805190602001209050846005600083815260200190815260200160002060006101000a81548173ffffffffffffffffffffffffffffffffffffffff021916908373ffffffffffffffffffffffffffffffffffffffff160217905550807fb5e6e01e79f91267dc17b4e6314d5d4d03593d2ceee0fbb452b750bd70ea5af960405160405180910390a2600260009054906101000a900473ffffffffffffffffffffffffffffffffffffffff1673ffffffffffffffffffffffffffffffffffffffff16634000aea08685856040518463ffffffff1660e01b8152600401612a3493929190613c3f565b602060405180830381600087803b158015612a4e57600080fd5b505af1158015612a62573d6000803e3d6000fd5b505050506040513d601f19601f82011682018060405250810190612a869190613303565b612ac5576040517f08c379a0000000000000000000000000000000000000000000000000000000008152600401612abc90613e0b565b60405180910390fd5b949350505050565b612ad5613131565b6000602083612ae491906145e9565b14612b1057602082612af691906145e9565b6020612b0291906143c5565b82612b0d9190614110565b91505b81836020018181525050604051808452600081528281016020016040525082905092915050565b60178167ffffffffffffffff1611612b6e57612b688160058460ff16901b60ff161784612dc390919063ffffffff16565b50612cb7565b60ff8167ffffffffffffffff1611612bc457612b9d601860058460ff16901b1784612dc390919063ffffffff16565b50612bbe8167ffffffffffffffff16600185612de39092919063ffffffff16565b50612cb6565b61ffff8167ffffffffffffffff1611612c1b57612bf4601960058460ff16901b1784612dc390919063ffffffff16565b50612c158167ffffffffffffffff16600285612de39092919063ffffffff16565b50612cb5565b63ffffffff8167ffffffffffffffff1611612c7457612c4d601a60058460ff16901b1784612dc390919063ffffffff16565b50612c6e8167ffffffffffffffff16600485612de39092919063ffffffff16565b50612cb4565b612c91601b60058460ff16901b1784612dc390919063ffffffff16565b50612cb28167ffffffffffffffff16600885612de39092919063ffffffff16565b505b5b5b5b505050565b612cc4613131565b612cd683846000015151848551612e05565b905092915050565b612cfb601f60058360ff16901b1783612dc390919063ffffffff16565b505050565b612d1e60036005600660ff16901b1783612dc390919063ffffffff16565b50612d7382827fffffffffffffffffffffffffffffffffffffffffffffffffffffffffffffffff612d4f9190614331565b604051602001612d5f9190613fab565b604051602081830303815290604052612ef4565b5050565b612d9560026005600660ff16901b1783612dc390919063ffffffff16565b50612dbf8282604051602001612dab9190613fab565b604051602081830303815290604052612ef4565b5050565b612dcb613131565b612ddb8384600001515184612f19565b905092915050565b612deb613131565b612dfc848560000151518585612f70565b90509392505050565b612e0d613131565b8251821115612e1b57600080fd5b84602001518285612e2c9190614110565b1115612e6157612e60856002612e5188602001518887612e4c9190614110565b612ffe565b612e5b91906142d7565b61301a565b5b600080865180518760208301019350808887011115612e805787860182525b60208701925050505b60208410612ec75780518252602082612ea29190614110565b9150602081612eb19190614110565b9050602084612ec091906143c5565b9350612e89565b60006001856020036101000a03905080198251168184511681811785525050508692505050949350505050565b612f018260028351612b37565b612f148183612cbc90919063ffffffff16565b505050565b612f21613131565b83602001518310612f4757612f468460028660200151612f4191906142d7565b61301a565b5b8351805160208583010184815381861415612f63576001820183525b5050508390509392505050565b612f78613131565b84602001518483612f899190614110565b1115612fb157612fb08560028685612fa19190614110565b612fab91906142d7565b61301a565b5b6000600183610100612fc391906141b9565b612fcd91906143c5565b90508551838682010185831982511617815281518588011115612ff05784870182525b505085915050949350505050565b60008183111561301057829050613014565b8190505b92915050565b60008260000151905061302d8383612acd565b506130388382612cbc565b50505050565b82805461304a9061450f565b90600052602060002090601f01602090048101928261306c57600085556130b3565b82601f1061308557805160ff19168380011785556130b3565b828001600101855582156130b3579182015b828111156130b2578251825591602001919060010190613097565b5b5090506130c0919061314b565b5090565b6040518060a0016040528060008019168152602001600073ffffffffffffffffffffffffffffffffffffffff16815260200160007bffffffffffffffffffffffffffffffffffffffffffffffffffffffff191681526020016000815260200161312b613131565b81525090565b604051806040016040528060608152602001600081525090565b5b8082111561316457600081600090555060010161314c565b5090565b600061317b6131768461403d565b614018565b90508281526020810184848401111561319757613196614714565b5b6131a28482856144cd565b509392505050565b6000813590506131b981614bf5565b92915050565b6000815190506131ce81614c0c565b92915050565b6000813590506131e381614c23565b92915050565b60008083601f8401126131ff576131fe61470a565b5b8235905067ffffffffffffffff81111561321c5761321b614705565b5b6020830191508360018202830111156132385761323761470f565b5b9250929050565b60008135905061324e81614c3a565b92915050565b60008151905061326381614c3a565b92915050565b600082601f83011261327e5761327d61470a565b5b813561328e848260208601613168565b91505092915050565b6000813590506132a681614c51565b92915050565b6000815190506132bb81614c51565b92915050565b6000815190506132d081614c68565b92915050565b6000602082840312156132ec576132eb61471e565b5b60006132fa848285016131aa565b91505092915050565b6000602082840312156133195761331861471e565b5b6000613327848285016131bf565b91505092915050565b6000602082840312156133465761334561471e565b5b6000613354848285016131d4565b91505092915050565b600080604083850312156133745761337361471e565b5b6000613382858286016131d4565b925050602061339385828601613297565b9150509250929050565b600080602083850312156133b4576133b361471e565b5b600083013567ffffffffffffffff8111156133d2576133d1614719565b5b6133de858286016131e9565b92509250509250929050565b600060208284031215613400576133ff61471e565b5b600061340e8482850161323f565b91505092915050565b60006020828403121561342d5761342c61471e565b5b600082013567ffffffffffffffff81111561344b5761344a614719565b5b61345784828501613269565b91505092915050565b600080604083850312156134775761347661471e565b5b600083013567ffffffffffffffff81111561349557613494614719565b5b6134a185828601613269565b92505060206134b285828601613297565b9150509250929050565b6000602082840312156134d2576134d161471e565b5b60006134e084828501613297565b91505092915050565b6000602082840312156134ff576134fe61471e565b5b600061350d848285016132ac565b91505092915050565b600080600080600060a086880312156135325761353161471e565b5b6000613540888289016132c1565b955050602061355188828901613254565b9450506040613562888289016132ac565b9350506060613573888289016132ac565b9250506080613584888289016132c1565b9150509295509295909350565b600061359d83836136b5565b905092915050565b6135ae816143f9565b82525050565b60006135bf82614093565b6135c981856140c1565b9350836020820285016135db8561406e565b8060005b8581101561361757848403895281516135f88582613591565b9450613603836140b4565b925060208a019950506001810190506135df565b50829750879550505050505092915050565b6136328161440b565b82525050565b61364181614417565b82525050565b61365081614421565b82525050565b60006136618261409e565b61366b81856140d2565b935061367b8185602086016144dc565b61368481614723565b840191505092915050565b6136a061369b82614497565b6145bb565b82525050565b6136af8161444d565b82525050565b60006136c0826140a9565b6136ca81856140e3565b93506136da8185602086016144dc565b6136e381614723565b840191505092915050565b60006136f9826140a9565b61370381856140f4565b93506137138185602086016144dc565b61371c81614723565b840191505092915050565b6000613732826140a9565b61373c8185614105565b935061374c8185602086016144dc565b80840191505092915050565b600081546137658161450f565b61376f81866140f4565b9450600182166000811461378a576001811461379c576137cf565b60ff19831686526020860193506137cf565b6137a58561407e565b60005b838110156137c7578154818901526001820191506020810190506137a8565b808801955050505b50505092915050565b600081546137e58161450f565b6137ef8186614105565b9450600182166000811461380a576001811461381b5761384e565b60ff1983168652818601935061384e565b6138248561407e565b60005b8381101561384657815481890152600182019150602081019050613827565b838801955050505b50505092915050565b60006138646044836140f4565b915061386f8261474e565b606082019050919050565b6000613887600883614105565b9150613892826147c3565b600882019050919050565b60006138aa6002836140f4565b91506138b5826147ec565b602082019050919050565b60006138cd6023836140f4565b91506138d882614815565b604082019050919050565b60006138f0602f836140f4565b91506138fb82614864565b604082019050919050565b60006139136024836140f4565b915061391e826148b3565b604082019050919050565b6000613936601e836140f4565b915061394182614902565b602082019050919050565b60006139596038836140f4565b91506139648261492b565b604082019050919050565b600061397c6012836140f4565b91506139878261497a565b602082019050919050565b600061399f6024836140f4565b91506139aa826149a3565b604082019050919050565b60006139c26023836140f4565b91506139cd826149f2565b604082019050919050565b60006139e56034836140f4565b91506139f082614a41565b604082019050919050565b6000613a086028836140f4565b9150613a1382614a90565b604082019050919050565b6000613a2b603c836140f4565b9150613a3682614adf565b604082019050919050565b6000613a4e601a836140f4565b9150613a5982614b2e565b602082019050919050565b6000613a716023836140f4565b9150613a7c82614b57565b604082019050919050565b6000613a94603f83614105565b9150613a9f82614ba6565b603f82019050919050565b613ab381614477565b82525050565b613aca613ac582614477565b6145df565b82525050565b6000613adc828561368f565b601482019150613aec8284613ab9565b6020820191508190509392505050565b6000613b088284613727565b915081905092915050565b6000613b1e82613a87565b9150613b2a8285613727565b9150613b358261387a565b9150613b4182846137d8565b91508190509392505050565b6000602082019050613b6260008301846135a5565b92915050565b6000604082019050613b7d60008301856135a5565b613b8a60208301846135a5565b9392505050565b6000604082019050613ba660008301856135a5565b613bb36020830184613aaa565b9392505050565b600061010082019050613bd0600083018b6135a5565b613bdd602083018a613aaa565b613bea6040830189613638565b613bf760608301886135a5565b613c046080830187613647565b613c1160a0830186613aaa565b613c1e60c0830185613aaa565b81810360e0830152613c308184613656565b90509998505050505050505050565b6000606082019050613c5460008301866135a5565b613c616020830185613aaa565b8181036040830152613c738184613656565b9050949350505050565b60006020820190508181036000830152613c9781846135b4565b905092915050565b6000602082019050613cb46000830184613629565b92915050565b6000604082019050613ccf6000830185613629565b8181036020830152613ce18184613656565b90509392505050565b6000602082019050613cff6000830184613638565b92915050565b6000604082019050613d1a6000830185613638565b613d276020830184613638565b9392505050565b6000602082019050613d4360008301846136a6565b92915050565b6000604082019050613d5e60008301856136a6565b613d6b60208301846136a6565b9392505050565b60006020820190508181036000830152613d8c81846136ee565b905092915050565b60006040820190508181036000830152613dae8185613758565b90508181036020830152613dc281846136ee565b90509392505050565b60006020820190508181036000830152613de481613857565b9050919050565b60006020820190508181036000830152613e048161389d565b9050919050565b60006020820190508181036000830152613e24816138c0565b9050919050565b60006020820190508181036000830152613e44816138e3565b9050919050565b60006020820190508181036000830152613e6481613906565b9050919050565b60006020820190508181036000830152613e8481613929565b9050919050565b60006020820190508181036000830152613ea48161394c565b9050919050565b60006020820190508181036000830152613ec48161396f565b9050919050565b60006020820190508181036000830152613ee481613992565b9050919050565b60006020820190508181036000830152613f04816139b5565b9050919050565b60006020820190508181036000830152613f24816139d8565b9050919050565b60006020820190508181036000830152613f44816139fb565b9050919050565b60006020820190508181036000830152613f6481613a1e565b9050919050565b60006020820190508181036000830152613f8481613a41565b9050919050565b60006020820190508181036000830152613fa481613a64565b9050919050565b6000602082019050613fc06000830184613aaa565b92915050565b6000604082019050613fdb6000830185613aaa565b613fe86020830184613629565b9392505050565b60006040820190506140046000830185613aaa565b6140116020830184613aaa565b9392505050565b6000614022614033565b905061402e8282614541565b919050565b6000604051905090565b600067ffffffffffffffff821115614058576140576146d6565b5b61406182614723565b9050602081019050919050565b6000819050602082019050919050565b60008190508160005260206000209050919050565b600081519050919050565b600081519050919050565b600081519050919050565b6000602082019050919050565b600082825260208201905092915050565b600082825260208201905092915050565b600082825260208201905092915050565b600082825260208201905092915050565b600081905092915050565b600061411b82614477565b915061412683614477565b9250827fffffffffffffffffffffffffffffffffffffffffffffffffffffffffffffffff0382111561415b5761415a61461a565b5b828201905092915050565b6000808291508390505b60018511156141b05780860481111561418c5761418b61461a565b5b600185161561419b5780820291505b80810290506141a985614741565b9450614170565b94509492505050565b60006141c482614477565b91506141cf83614477565b92506141fc7fffffffffffffffffffffffffffffffffffffffffffffffffffffffffffffffff8484614204565b905092915050565b60008261421457600190506142d0565b8161422257600090506142d0565b8160018114614238576002811461424257614271565b60019150506142d0565b60ff8411156142545761425361461a565b5b8360020a91508482111561426b5761426a61461a565b5b506142d0565b5060208310610133831016604e8410600b84101617156142a65782820a9050838111156142a1576142a061461a565b5b6142d0565b6142b38484846001614166565b925090508184048111156142ca576142c961461a565b5b81810290505b9392505050565b60006142e282614477565b91506142ed83614477565b9250817fffffffffffffffffffffffffffffffffffffffffffffffffffffffffffffffff04831182151516156143265761432561461a565b5b828202905092915050565b600061433c8261444d565b91506143478361444d565b9250827f8000000000000000000000000000000000000000000000000000000000000000018212600084121516156143825761438161461a565b5b827f7fffffffffffffffffffffffffffffffffffffffffffffffffffffffffffffff0182136000841216156143ba576143b961461a565b5b828203905092915050565b60006143d082614477565b91506143db83614477565b9250828210156143ee576143ed61461a565b5b828203905092915050565b600061440482614457565b9050919050565b60008115159050919050565b6000819050919050565b60007fffffffff0000000000000000000000000000000000000000000000000000000082169050919050565b6000819050919050565b600073ffffffffffffffffffffffffffffffffffffffff82169050919050565b6000819050919050565b600069ffffffffffffffffffff82169050919050565b60006144a2826144a9565b9050919050565b60006144b4826144bb565b9050919050565b60006144c682614457565b9050919050565b82818337600083830152505050565b60005b838110156144fa5780820151818401526020810190506144df565b83811115614509576000848401525b50505050565b6000600282049050600182168061452757607f821691505b6020821081141561453b5761453a614678565b5b50919050565b61454a82614723565b810181811067ffffffffffffffff82111715614569576145686146d6565b5b80604052505050565b600061457d82614477565b91507fffffffffffffffffffffffffffffffffffffffffffffffffffffffffffffffff8214156145b0576145af61461a565b5b600182019050919050565b60006145c6826145cd565b9050919050565b60006145d882614734565b9050919050565b6000819050919050565b60006145f482614477565b91506145ff83614477565b92508261460f5761460e614649565b5b828206905092915050565b7f4e487b7100000000000000000000000000000000000000000000000000000000600052601160045260246000fd5b7f4e487b7100000000000000000000000000000000000000000000000000000000600052601260045260246000fd5b7f4e487b7100000000000000000000000000000000000000000000000000000000600052602260045260246000fd5b7f4e487b7100000000000000000000000000000000000000000000000000000000600052603260045260246000fd5b7f4e487b7100000000000000000000000000000000000000000000000000000000600052604160045260246000fd5b600080fd5b600080fd5b600080fd5b600080fd5b600080fd5b600080fd5b6000601f19601f8301169050919050565b60008160601b9050919050565b60008160011c9050919050565b7f54686520636f6e74726163742069732070617573656420616e6420746865206160008201527f75746f6d6174696320757064617465206f66207072696365732069732073746f60208201527f7070656400000000000000000000000000000000000000000000000000000000604082015250565b7f266170696b65793d000000000000000000000000000000000000000000000000600082015250565b7f3078000000000000000000000000000000000000000000000000000000000000600082015250565b7f756e61626c6520746f207472616e73666572416e6443616c6c20746f206f726160008201527f636c650000000000000000000000000000000000000000000000000000000000602082015250565b7f4f6e6c79207468652068756220616e6420746865206f776e65722063616e206360008201527f616c6c2074686973206d6574686f640000000000000000000000000000000000602082015250565b7f546865206164647265737320706172616d657465722063616e6e6f742062652060008201527f6e756c6c00000000000000000000000000000000000000000000000000000000602082015250565b7f54686520636f6e747261637420697320616c7265616479207061757365640000600082015250565b7f546865206173736574206d757374206e6f7420616c726561647920626520726560008201527f676973746572656420696e2074686520636f6e74726163740000000000000000602082015250565b7f556e61626c6520746f207472616e736665720000000000000000000000000000600082015250565b7f54686520737472696e6720706172616d657465722063616e6e6f74206265206560008201527f6d70747900000000000000000000000000000000000000000000000000000000602082015250565b7f4f6e6c7920746865206f776e65722063616e2063616c6c2074686973206d657460008201527f686f640000000000000000000000000000000000000000000000000000000000602082015250565b7f546865206173736574206d75737420616c72656164792062652072656769737460008201527f6572656420696e2074686520636f6e7472616374000000000000000000000000602082015250565b7f536f75726365206d75737420626520746865206f7261636c65206f662074686560008201527f2072657175657374000000000000000000000000000000000000000000000000602082015250565b7f4f6e6c7920746865206b65657065727320726567697374727920616e6420746860008201527f65206f776e65722063616e2063616c6c2074686973206d6574686f6400000000602082015250565b7f54686520636f6e7472616374206973206e6f7420706175736564000000000000600082015250565b7f54686520627974657320706172616d657465722063616e6e6f7420626520656d60008201527f7074790000000000000000000000000000000000000000000000000000000000602082015250565b7f68747470733a2f2f7777772e616c70686176616e746167652e636f2f7175657260008201527f793f66756e6374696f6e3d474c4f42414c5f51554f54452673796d626f6c3d00602082015250565b614bfe816143f9565b8114614c0957600080fd5b50565b614c158161440b565b8114614c2057600080fd5b50565b614c2c81614417565b8114614c3757600080fd5b50565b614c438161444d565b8114614c4e57600080fd5b50565b614c5a81614477565b8114614c6557600080fd5b50565b614c7181614481565b8114614c7c57600080fd5b5056fea2646970667358221220c4d5bf19587d770e0cadec5eca3f9abfd5480ef7581a2ca976a1900ca6ae6ad064736f6c63430008070033",
  "linkReferences": {},
  "deployedLinkReferences": {}
}